{"abi":[{"inputs":[{"internalType":"uint256","name":"minimum","type":"uint256"},{"internalType":"address","name":"creator","type":"address"}],"stateMutability":"nonpayable","type":"constructor"},{"inputs":[{"internalType":"uint256","name":"index","type":"uint256"}],"name":"approveRequest","outputs":[],"stateMutability":"nonpayable","type":"function"},{"inputs":[{"internalType":"address","name":"","type":"address"}],"name":"approvers","outputs":[{"internalType":"bool","name":"","type":"bool"}],"stateMutability":"view","type":"function"},{"inputs":[],"name":"approversCount","outputs":[{"internalType":"uint256","name":"","type":"uint256"}],"stateMutability":"view","type":"function"},{"inputs":[],"name":"contribute","outputs":[],"stateMutability":"payable","type":"function"},{"inputs":[{"internalType":"string","name":"description","type":"string"},{"internalType":"uint256","name":"value","type":"uint256"},{"internalType":"address payable","name":"recipient","type":"address"}],"name":"createRequest","outputs":[],"stateMutability":"payable","type":"function"},{"inputs":[{"internalType":"uint256","name":"index","type":"uint256"}],"name":"finalizeRequest","outputs":[],"stateMutability":"payable","type":"function"},{"inputs":[],"name":"getRequestCount","outputs":[{"internalType":"uint256","name":"","type":"uint256"}],"stateMutability":"view","type":"function"},{"inputs":[],"name":"getSummary","outputs":[{"internalType":"uint256","name":"","type":"uint256"},{"internalType":"uint256","name":"","type":"uint256"},{"internalType":"uint256","name":"","type":"uint256"},{"internalType":"uint256","name":"","type":"uint256"},{"internalType":"address","name":"","type":"address"}],"stateMutability":"view","type":"function"},{"inputs":[],"name":"manager","outputs":[{"internalType":"address payable","name":"","type":"address"}],"stateMutability":"view","type":"function"},{"inputs":[],"name":"minimumContribution","outputs":[{"internalType":"uint256","name":"","type":"uint256"}],"stateMutability":"view","type":"function"},{"inputs":[{"internalType":"uint256","name":"","type":"uint256"}],"name":"requests","outputs":[{"internalType":"string","name":"description","type":"string"},{"internalType":"uint256","name":"value","type":"uint256"},{"internalType":"address payable","name":"recipient","type":"address"},{"internalType":"bool","name":"complete","type":"bool"},{"internalType":"uint256","name":"approvalCount","type":"uint256"}],"stateMutability":"view","type":"function"}],"devdoc":{"kind":"dev","methods":{},"version":1},"evm":{"assembly":"    /* \"Campaign.sol\":57:3001  contract Campaighn {... */\n  mstore(0x40, 0x80)\n    /* \"Campaign.sol\":535:536  0 */\n  0x00\n    /* \"Campaign.sol\":504:536  uint256 private currentIndex = 0 */\n  0x04\n  sstore\n    /* \"Campaign.sol\":710:838  constructor(uint256 minimum, address creator) {... */\n  callvalue\n  dup1\n  iszero\n  tag_1\n  jumpi\n  0x00\n  dup1\n  revert\ntag_1:\n  pop\n  mload(0x40)\n  sub(codesize, bytecodeSize)\n  dup1\n  bytecodeSize\n  dup4\n  codecopy\n  dup2\n  dup2\n  add\n  0x40\n  mstore\n  dup2\n  add\n  swap1\n  tag_2\n  swap2\n  swap1\n  tag_3\n  jump\t// in\ntag_2:\n    /* \"Campaign.sol\":784:791  creator */\n  dup1\n    /* \"Campaign.sol\":766:773  manager */\n  0x00\n  dup1\n    /* \"Campaign.sol\":766:792  manager = payable(creator) */\n  0x0100\n  exp\n  dup2\n  sload\n  dup2\n  0xffffffffffffffffffffffffffffffffffffffff\n  mul\n  not\n  and\n  swap1\n  dup4\n  0xffffffffffffffffffffffffffffffffffffffff\n  and\n  mul\n  or\n  swap1\n  sstore\n  pop\n    /* \"Campaign.sol\":824:831  minimum */\n  dup2\n    /* \"Campaign.sol\":802:821  minimumContribution */\n  0x01\n    /* \"Campaign.sol\":802:831  minimumContribution = minimum */\n  dup2\n  swap1\n  sstore\n  pop\n    /* \"Campaign.sol\":710:838  constructor(uint256 minimum, address creator) {... */\n  pop\n  pop\n    /* \"Campaign.sol\":57:3001  contract Campaighn {... */\n  jump(tag_6)\n    /* \"#utility.yul\":88:205   */\ntag_8:\n    /* \"#utility.yul\":197:198   */\n  0x00\n    /* \"#utility.yul\":194:195   */\n  dup1\n    /* \"#utility.yul\":187:199   */\n  revert\n    /* \"#utility.yul\":334:411   */\ntag_10:\n    /* \"#utility.yul\":371:378   */\n  0x00\n    /* \"#utility.yul\":400:405   */\n  dup2\n    /* \"#utility.yul\":389:405   */\n  swap1\n  pop\n    /* \"#utility.yul\":334:411   */\n  swap2\n  swap1\n  pop\n  jump\t// out\n    /* \"#utility.yul\":417:539   */\ntag_11:\n    /* \"#utility.yul\":490:514   */\n  tag_23\n    /* \"#utility.yul\":508:513   */\n  dup2\n    /* \"#utility.yul\":490:514   */\n  tag_10\n  jump\t// in\ntag_23:\n    /* \"#utility.yul\":483:488   */\n  dup2\n    /* \"#utility.yul\":480:515   */\n  eq\n    /* \"#utility.yul\":470:533   */\n  tag_24\n  jumpi\n    /* \"#utility.yul\":529:530   */\n  0x00\n    /* \"#utility.yul\":526:527   */\n  dup1\n    /* \"#utility.yul\":519:531   */\n  revert\n    /* \"#utility.yul\":470:533   */\ntag_24:\n    /* \"#utility.yul\":417:539   */\n  pop\n  jump\t// out\n    /* \"#utility.yul\":545:688   */\ntag_12:\n    /* \"#utility.yul\":602:607   */\n  0x00\n    /* \"#utility.yul\":633:639   */\n  dup2\n    /* \"#utility.yul\":627:640   */\n  mload\n    /* \"#utility.yul\":618:640   */\n  swap1\n  pop\n    /* \"#utility.yul\":649:682   */\n  tag_26\n    /* \"#utility.yul\":676:681   */\n  dup2\n    /* \"#utility.yul\":649:682   */\n  tag_11\n  jump\t// in\ntag_26:\n    /* \"#utility.yul\":545:688   */\n  swap3\n  swap2\n  pop\n  pop\n  jump\t// out\n    /* \"#utility.yul\":694:820   */\ntag_13:\n    /* \"#utility.yul\":731:738   */\n  0x00\n    /* \"#utility.yul\":771:813   */\n  0xffffffffffffffffffffffffffffffffffffffff\n    /* \"#utility.yul\":764:769   */\n  dup3\n    /* \"#utility.yul\":760:814   */\n  and\n    /* \"#utility.yul\":749:814   */\n  swap1\n  pop\n    /* \"#utility.yul\":694:820   */\n  swap2\n  swap1\n  pop\n  jump\t// out\n    /* \"#utility.yul\":826:922   */\ntag_14:\n    /* \"#utility.yul\":863:870   */\n  0x00\n    /* \"#utility.yul\":892:916   */\n  tag_29\n    /* \"#utility.yul\":910:915   */\n  dup3\n    /* \"#utility.yul\":892:916   */\n  tag_13\n  jump\t// in\ntag_29:\n    /* \"#utility.yul\":881:916   */\n  swap1\n  pop\n    /* \"#utility.yul\":826:922   */\n  swap2\n  swap1\n  pop\n  jump\t// out\n    /* \"#utility.yul\":928:1050   */\ntag_15:\n    /* \"#utility.yul\":1001:1025   */\n  tag_31\n    /* \"#utility.yul\":1019:1024   */\n  dup2\n    /* \"#utility.yul\":1001:1025   */\n  tag_14\n  jump\t// in\ntag_31:\n    /* \"#utility.yul\":994:999   */\n  dup2\n    /* \"#utility.yul\":991:1026   */\n  eq\n    /* \"#utility.yul\":981:1044   */\n  tag_32\n  jumpi\n    /* \"#utility.yul\":1040:1041   */\n  0x00\n    /* \"#utility.yul\":1037:1038   */\n  dup1\n    /* \"#utility.yul\":1030:1042   */\n  revert\n    /* \"#utility.yul\":981:1044   */\ntag_32:\n    /* \"#utility.yul\":928:1050   */\n  pop\n  jump\t// out\n    /* \"#utility.yul\":1056:1199   */\ntag_16:\n    /* \"#utility.yul\":1113:1118   */\n  0x00\n    /* \"#utility.yul\":1144:1150   */\n  dup2\n    /* \"#utility.yul\":1138:1151   */\n  mload\n    /* \"#utility.yul\":1129:1151   */\n  swap1\n  pop\n    /* \"#utility.yul\":1160:1193   */\n  tag_34\n    /* \"#utility.yul\":1187:1192   */\n  dup2\n    /* \"#utility.yul\":1160:1193   */\n  tag_15\n  jump\t// in\ntag_34:\n    /* \"#utility.yul\":1056:1199   */\n  swap3\n  swap2\n  pop\n  pop\n  jump\t// out\n    /* \"#utility.yul\":1205:1712   */\ntag_3:\n    /* \"#utility.yul\":1284:1290   */\n  0x00\n    /* \"#utility.yul\":1292:1298   */\n  dup1\n    /* \"#utility.yul\":1341:1343   */\n  0x40\n    /* \"#utility.yul\":1329:1338   */\n  dup4\n    /* \"#utility.yul\":1320:1327   */\n  dup6\n    /* \"#utility.yul\":1316:1339   */\n  sub\n    /* \"#utility.yul\":1312:1344   */\n  slt\n    /* \"#utility.yul\":1309:1428   */\n  iszero\n  tag_36\n  jumpi\n    /* \"#utility.yul\":1347:1426   */\n  tag_37\n  tag_8\n  jump\t// in\ntag_37:\n    /* \"#utility.yul\":1309:1428   */\ntag_36:\n    /* \"#utility.yul\":1467:1468   */\n  0x00\n    /* \"#utility.yul\":1492:1556   */\n  tag_38\n    /* \"#utility.yul\":1548:1555   */\n  dup6\n    /* \"#utility.yul\":1539:1545   */\n  dup3\n    /* \"#utility.yul\":1528:1537   */\n  dup7\n    /* \"#utility.yul\":1524:1546   */\n  add\n    /* \"#utility.yul\":1492:1556   */\n  tag_12\n  jump\t// in\ntag_38:\n    /* \"#utility.yul\":1482:1556   */\n  swap3\n  pop\n    /* \"#utility.yul\":1438:1566   */\n  pop\n    /* \"#utility.yul\":1605:1607   */\n  0x20\n    /* \"#utility.yul\":1631:1695   */\n  tag_39\n    /* \"#utility.yul\":1687:1694   */\n  dup6\n    /* \"#utility.yul\":1678:1684   */\n  dup3\n    /* \"#utility.yul\":1667:1676   */\n  dup7\n    /* \"#utility.yul\":1663:1685   */\n  add\n    /* \"#utility.yul\":1631:1695   */\n  tag_16\n  jump\t// in\ntag_39:\n    /* \"#utility.yul\":1621:1695   */\n  swap2\n  pop\n    /* \"#utility.yul\":1576:1705   */\n  pop\n    /* \"#utility.yul\":1205:1712   */\n  swap3\n  pop\n  swap3\n  swap1\n  pop\n  jump\t// out\n    /* \"Campaign.sol\":57:3001  contract Campaighn {... */\ntag_6:\n  dataSize(sub_0)\n  dup1\n  dataOffset(sub_0)\n  0x00\n  codecopy\n  0x00\n  return\nstop\n\nsub_0: assembly {\n        /* \"Campaign.sol\":57:3001  contract Campaighn {... */\n      mstore(0x40, 0x80)\n      jumpi(tag_1, lt(calldatasize, 0x04))\n      shr(0xe0, calldataload(0x00))\n      dup1\n      0x81d12c58\n      gt\n      tag_13\n      jumpi\n      dup1\n      0x81d12c58\n      eq\n      tag_7\n      jumpi\n      dup1\n      0x82fde093\n      eq\n      tag_8\n      jumpi\n      dup1\n      0x8a9cfd55\n      eq\n      tag_9\n      jumpi\n      dup1\n      0x937e09b1\n      eq\n      tag_10\n      jumpi\n      dup1\n      0xd7bb99ba\n      eq\n      tag_11\n      jumpi\n      dup1\n      0xd7d1bbdb\n      eq\n      tag_12\n      jumpi\n      jump(tag_1)\n    tag_13:\n      dup1\n      0x03441006\n      eq\n      tag_2\n      jumpi\n      dup1\n      0x0a144391\n      eq\n      tag_3\n      jumpi\n      dup1\n      0x3fad1834\n      eq\n      tag_4\n      jumpi\n      dup1\n      0x4051ddac\n      eq\n      tag_5\n      jumpi\n      dup1\n      0x481c6a75\n      eq\n      tag_6\n      jumpi\n    tag_1:\n      0x00\n      dup1\n      revert\n        /* \"Campaign.sol\":2218:2525  function finalizeRequest(uint256 index) public payable restricted {... */\n    tag_2:\n      tag_14\n      0x04\n      dup1\n      calldatasize\n      sub\n      dup2\n      add\n      swap1\n      tag_15\n      swap2\n      swap1\n      tag_16\n      jump\t// in\n    tag_15:\n      tag_17\n      jump\t// in\n    tag_14:\n      stop\n        /* \"Campaign.sol\":426:467  mapping(address => bool) public approvers */\n    tag_3:\n      callvalue\n      dup1\n      iszero\n      tag_18\n      jumpi\n      0x00\n      dup1\n      revert\n    tag_18:\n      pop\n      tag_19\n      0x04\n      dup1\n      calldatasize\n      sub\n      dup2\n      add\n      swap1\n      tag_20\n      swap2\n      swap1\n      tag_21\n      jump\t// in\n    tag_20:\n      tag_22\n      jump\t// in\n    tag_19:\n      mload(0x40)\n      tag_23\n      swap2\n      swap1\n      tag_24\n      jump\t// in\n    tag_23:\n      mload(0x40)\n      dup1\n      swap2\n      sub\n      swap1\n      return\n        /* \"Campaign.sol\":2903:2999  function getRequestCount() public view returns (uint256) {... */\n    tag_4:\n      callvalue\n      dup1\n      iszero\n      tag_25\n      jumpi\n      0x00\n      dup1\n      revert\n    tag_25:\n      pop\n      tag_26\n      tag_27\n      jump\t// in\n    tag_26:\n      mload(0x40)\n      tag_28\n      swap2\n      swap1\n      tag_29\n      jump\t// in\n    tag_28:\n      mload(0x40)\n      dup1\n      swap2\n      sub\n      swap1\n      return\n        /* \"Campaign.sol\":2531:2897  function getSummary()... */\n    tag_5:\n      callvalue\n      dup1\n      iszero\n      tag_30\n      jumpi\n      0x00\n      dup1\n      revert\n    tag_30:\n      pop\n      tag_31\n      tag_32\n      jump\t// in\n    tag_31:\n      mload(0x40)\n      tag_33\n      swap6\n      swap5\n      swap4\n      swap3\n      swap2\n      swap1\n      tag_34\n      jump\t// in\n    tag_33:\n      mload(0x40)\n      dup1\n      swap2\n      sub\n      swap1\n      return\n        /* \"Campaign.sol\":350:380  address payable public manager */\n    tag_6:\n      callvalue\n      dup1\n      iszero\n      tag_35\n      jumpi\n      0x00\n      dup1\n      revert\n    tag_35:\n      pop\n      tag_36\n      tag_37\n      jump\t// in\n    tag_36:\n      mload(0x40)\n      tag_38\n      swap2\n      swap1\n      tag_39\n      jump\t// in\n    tag_38:\n      mload(0x40)\n      dup1\n      swap2\n      sub\n      swap1\n      return\n        /* \"Campaign.sol\":473:498  Request[] public requests */\n    tag_7:\n      callvalue\n      dup1\n      iszero\n      tag_40\n      jumpi\n      0x00\n      dup1\n      revert\n    tag_40:\n      pop\n      tag_41\n      0x04\n      dup1\n      calldatasize\n      sub\n      dup2\n      add\n      swap1\n      tag_42\n      swap2\n      swap1\n      tag_16\n      jump\t// in\n    tag_42:\n      tag_43\n      jump\t// in\n    tag_41:\n      mload(0x40)\n      tag_44\n      swap6\n      swap5\n      swap4\n      swap3\n      swap2\n      swap1\n      tag_45\n      jump\t// in\n    tag_44:\n      mload(0x40)\n      dup1\n      swap2\n      sub\n      swap1\n      return\n        /* \"Campaign.sol\":542:571  uint256 public approversCount */\n    tag_8:\n      callvalue\n      dup1\n      iszero\n      tag_46\n      jumpi\n      0x00\n      dup1\n      revert\n    tag_46:\n      pop\n      tag_47\n      tag_48\n      jump\t// in\n    tag_47:\n      mload(0x40)\n      tag_49\n      swap2\n      swap1\n      tag_29\n      jump\t// in\n    tag_49:\n      mload(0x40)\n      dup1\n      swap2\n      sub\n      swap1\n      return\n        /* \"Campaign.sol\":1373:1857  function createRequest(... */\n    tag_9:\n      tag_50\n      0x04\n      dup1\n      calldatasize\n      sub\n      dup2\n      add\n      swap1\n      tag_51\n      swap2\n      swap1\n      tag_52\n      jump\t// in\n    tag_51:\n      tag_53\n      jump\t// in\n    tag_50:\n      stop\n        /* \"Campaign.sol\":386:420  uint256 public minimumContribution */\n    tag_10:\n      callvalue\n      dup1\n      iszero\n      tag_54\n      jumpi\n      0x00\n      dup1\n      revert\n    tag_54:\n      pop\n      tag_55\n      tag_56\n      jump\t// in\n    tag_55:\n      mload(0x40)\n      tag_57\n      swap2\n      swap1\n      tag_29\n      jump\t// in\n    tag_57:\n      mload(0x40)\n      dup1\n      swap2\n      sub\n      swap1\n      return\n        /* \"Campaign.sol\":844:1230  function contribute() public payable {... */\n    tag_11:\n      tag_58\n      tag_59\n      jump\t// in\n    tag_58:\n      stop\n        /* \"Campaign.sol\":1940:2212  function approveRequest(uint256 index) public {... */\n    tag_12:\n      callvalue\n      dup1\n      iszero\n      tag_60\n      jumpi\n      0x00\n      dup1\n      revert\n    tag_60:\n      pop\n      tag_61\n      0x04\n      dup1\n      calldatasize\n      sub\n      dup2\n      add\n      swap1\n      tag_62\n      swap2\n      swap1\n      tag_16\n      jump\t// in\n    tag_62:\n      tag_63\n      jump\t// in\n    tag_61:\n      stop\n        /* \"Campaign.sol\":2218:2525  function finalizeRequest(uint256 index) public payable restricted {... */\n    tag_17:\n        /* \"Campaign.sol\":632:639  manager */\n      0x00\n      dup1\n      sload\n      swap1\n      0x0100\n      exp\n      swap1\n      div\n      0xffffffffffffffffffffffffffffffffffffffff\n      and\n        /* \"Campaign.sol\":618:639  msg.sender == manager */\n      0xffffffffffffffffffffffffffffffffffffffff\n      and\n        /* \"Campaign.sol\":618:628  msg.sender */\n      caller\n        /* \"Campaign.sol\":618:639  msg.sender == manager */\n      0xffffffffffffffffffffffffffffffffffffffff\n      and\n      eq\n        /* \"Campaign.sol\":610:640  require(msg.sender == manager) */\n      tag_65\n      jumpi\n      0x00\n      dup1\n      revert\n    tag_65:\n        /* \"Campaign.sol\":2294:2317  Request storage request */\n      0x00\n        /* \"Campaign.sol\":2320:2328  requests */\n      0x03\n        /* \"Campaign.sol\":2329:2334  index */\n      dup3\n        /* \"Campaign.sol\":2320:2335  requests[index] */\n      dup2\n      sload\n      dup2\n      lt\n      tag_67\n      jumpi\n      tag_68\n      tag_69\n      jump\t// in\n    tag_68:\n    tag_67:\n      swap1\n      0x00\n      mstore\n      keccak256(0x00, 0x20)\n      swap1\n      0x05\n      mul\n      add\n        /* \"Campaign.sol\":2294:2335  Request storage request = requests[index] */\n      swap1\n      pop\n        /* \"Campaign.sol\":2395:2396  2 */\n      0x02\n        /* \"Campaign.sol\":2378:2392  approversCount */\n      sload(0x05)\n        /* \"Campaign.sol\":2378:2396  approversCount / 2 */\n      tag_71\n      swap2\n      swap1\n      tag_72\n      jump\t// in\n    tag_71:\n        /* \"Campaign.sol\":2353:2360  request */\n      dup2\n        /* \"Campaign.sol\":2353:2374  request.approvalCount */\n      0x03\n      add\n      sload\n        /* \"Campaign.sol\":2353:2397  request.approvalCount > (approversCount / 2) */\n      gt\n        /* \"Campaign.sol\":2345:2398  require(request.approvalCount > (approversCount / 2)) */\n      tag_73\n      jumpi\n      0x00\n      dup1\n      revert\n    tag_73:\n        /* \"Campaign.sol\":2417:2424  request */\n      dup1\n        /* \"Campaign.sol\":2417:2433  request.complete */\n      0x02\n      add\n      0x14\n      swap1\n      sload\n      swap1\n      0x0100\n      exp\n      swap1\n      div\n      0xff\n      and\n        /* \"Campaign.sol\":2416:2433  !request.complete */\n      iszero\n        /* \"Campaign.sol\":2408:2434  require(!request.complete) */\n      tag_74\n      jumpi\n      0x00\n      dup1\n      revert\n    tag_74:\n        /* \"Campaign.sol\":2444:2451  request */\n      dup1\n        /* \"Campaign.sol\":2444:2461  request.recipient */\n      0x02\n      add\n      0x00\n      swap1\n      sload\n      swap1\n      0x0100\n      exp\n      swap1\n      div\n      0xffffffffffffffffffffffffffffffffffffffff\n      and\n        /* \"Campaign.sol\":2444:2470  request.recipient.transfer */\n      0xffffffffffffffffffffffffffffffffffffffff\n      and\n        /* \"Campaign.sol\":2444:2485  request.recipient.transfer(request.value) */\n      0x08fc\n        /* \"Campaign.sol\":2471:2478  request */\n      dup3\n        /* \"Campaign.sol\":2471:2484  request.value */\n      0x01\n      add\n      sload\n        /* \"Campaign.sol\":2444:2485  request.recipient.transfer(request.value) */\n      swap1\n      dup2\n      iszero\n      mul\n      swap1\n      mload(0x40)\n      0x00\n      mload(0x40)\n      dup1\n      dup4\n      sub\n      dup2\n      dup6\n      dup9\n      dup9\n      call\n      swap4\n      pop\n      pop\n      pop\n      pop\n      iszero\n      dup1\n      iszero\n      tag_76\n      jumpi\n      returndatasize\n      0x00\n      dup1\n      returndatacopy\n      revert(0x00, returndatasize)\n    tag_76:\n      pop\n        /* \"Campaign.sol\":2514:2518  true */\n      0x01\n        /* \"Campaign.sol\":2495:2502  request */\n      dup2\n        /* \"Campaign.sol\":2495:2511  request.complete */\n      0x02\n      add\n      0x14\n        /* \"Campaign.sol\":2495:2518  request.complete = true */\n      0x0100\n      exp\n      dup2\n      sload\n      dup2\n      0xff\n      mul\n      not\n      and\n      swap1\n      dup4\n      iszero\n      iszero\n      mul\n      or\n      swap1\n      sstore\n      pop\n        /* \"Campaign.sol\":2284:2525  {... */\n      pop\n        /* \"Campaign.sol\":2218:2525  function finalizeRequest(uint256 index) public payable restricted {... */\n      pop\n      jump\t// out\n        /* \"Campaign.sol\":426:467  mapping(address => bool) public approvers */\n    tag_22:\n      mstore(0x20, 0x02)\n      dup1\n      0x00\n      mstore\n      keccak256(0x00, 0x40)\n      0x00\n      swap2\n      pop\n      sload\n      swap1\n      0x0100\n      exp\n      swap1\n      div\n      0xff\n      and\n      dup2\n      jump\t// out\n        /* \"Campaign.sol\":2903:2999  function getRequestCount() public view returns (uint256) {... */\n    tag_27:\n        /* \"Campaign.sol\":2951:2958  uint256 */\n      0x00\n        /* \"Campaign.sol\":2977:2985  requests */\n      0x03\n        /* \"Campaign.sol\":2977:2992  requests.length */\n      dup1\n      sload\n      swap1\n      pop\n        /* \"Campaign.sol\":2970:2992  return requests.length */\n      swap1\n      pop\n        /* \"Campaign.sol\":2903:2999  function getRequestCount() public view returns (uint256) {... */\n      swap1\n      jump\t// out\n        /* \"Campaign.sol\":2531:2897  function getSummary()... */\n    tag_32:\n        /* \"Campaign.sol\":2611:2618  uint256 */\n      0x00\n        /* \"Campaign.sol\":2632:2639  uint256 */\n      dup1\n        /* \"Campaign.sol\":2653:2660  uint256 */\n      0x00\n        /* \"Campaign.sol\":2674:2681  uint256 */\n      dup1\n        /* \"Campaign.sol\":2695:2702  address */\n      0x00\n        /* \"Campaign.sol\":2748:2767  minimumContribution */\n      sload(0x01)\n        /* \"Campaign.sol\":2781:2802  address(this).balance */\n      selfbalance\n        /* \"Campaign.sol\":2816:2824  requests */\n      0x03\n        /* \"Campaign.sol\":2816:2831  requests.length */\n      dup1\n      sload\n      swap1\n      pop\n        /* \"Campaign.sol\":2845:2859  approversCount */\n      sload(0x05)\n        /* \"Campaign.sol\":2873:2880  manager */\n      0x00\n      dup1\n      sload\n      swap1\n      0x0100\n      exp\n      swap1\n      div\n      0xffffffffffffffffffffffffffffffffffffffff\n      and\n        /* \"Campaign.sol\":2727:2890  return (... */\n      swap5\n      pop\n      swap5\n      pop\n      swap5\n      pop\n      swap5\n      pop\n      swap5\n      pop\n        /* \"Campaign.sol\":2531:2897  function getSummary()... */\n      swap1\n      swap2\n      swap3\n      swap4\n      swap5\n      jump\t// out\n        /* \"Campaign.sol\":350:380  address payable public manager */\n    tag_37:\n      0x00\n      dup1\n      sload\n      swap1\n      0x0100\n      exp\n      swap1\n      div\n      0xffffffffffffffffffffffffffffffffffffffff\n      and\n      dup2\n      jump\t// out\n        /* \"Campaign.sol\":473:498  Request[] public requests */\n    tag_43:\n      0x03\n      dup2\n      dup2\n      sload\n      dup2\n      lt\n      tag_79\n      jumpi\n      0x00\n      dup1\n      revert\n    tag_79:\n      swap1\n      0x00\n      mstore\n      keccak256(0x00, 0x20)\n      swap1\n      0x05\n      mul\n      add\n      0x00\n      swap2\n      pop\n      swap1\n      pop\n      dup1\n      0x00\n      add\n      dup1\n      sload\n      tag_81\n      swap1\n      tag_82\n      jump\t// in\n    tag_81:\n      dup1\n      0x1f\n      add\n      0x20\n      dup1\n      swap2\n      div\n      mul\n      0x20\n      add\n      mload(0x40)\n      swap1\n      dup2\n      add\n      0x40\n      mstore\n      dup1\n      swap3\n      swap2\n      swap1\n      dup2\n      dup2\n      mstore\n      0x20\n      add\n      dup3\n      dup1\n      sload\n      tag_83\n      swap1\n      tag_82\n      jump\t// in\n    tag_83:\n      dup1\n      iszero\n      tag_84\n      jumpi\n      dup1\n      0x1f\n      lt\n      tag_85\n      jumpi\n      0x0100\n      dup1\n      dup4\n      sload\n      div\n      mul\n      dup4\n      mstore\n      swap2\n      0x20\n      add\n      swap2\n      jump(tag_84)\n    tag_85:\n      dup3\n      add\n      swap2\n      swap1\n      0x00\n      mstore\n      keccak256(0x00, 0x20)\n      swap1\n    tag_86:\n      dup2\n      sload\n      dup2\n      mstore\n      swap1\n      0x01\n      add\n      swap1\n      0x20\n      add\n      dup1\n      dup4\n      gt\n      tag_86\n      jumpi\n      dup3\n      swap1\n      sub\n      0x1f\n      and\n      dup3\n      add\n      swap2\n    tag_84:\n      pop\n      pop\n      pop\n      pop\n      pop\n      swap1\n      dup1\n      0x01\n      add\n      sload\n      swap1\n      dup1\n      0x02\n      add\n      0x00\n      swap1\n      sload\n      swap1\n      0x0100\n      exp\n      swap1\n      div\n      0xffffffffffffffffffffffffffffffffffffffff\n      and\n      swap1\n      dup1\n      0x02\n      add\n      0x14\n      swap1\n      sload\n      swap1\n      0x0100\n      exp\n      swap1\n      div\n      0xff\n      and\n      swap1\n      dup1\n      0x03\n      add\n      sload\n      swap1\n      pop\n      dup6\n      jump\t// out\n        /* \"Campaign.sol\":542:571  uint256 public approversCount */\n    tag_48:\n      sload(0x05)\n      dup2\n      jump\t// out\n        /* \"Campaign.sol\":1373:1857  function createRequest(... */\n    tag_53:\n        /* \"Campaign.sol\":632:639  manager */\n      0x00\n      dup1\n      sload\n      swap1\n      0x0100\n      exp\n      swap1\n      div\n      0xffffffffffffffffffffffffffffffffffffffff\n      and\n        /* \"Campaign.sol\":618:639  msg.sender == manager */\n      0xffffffffffffffffffffffffffffffffffffffff\n      and\n        /* \"Campaign.sol\":618:628  msg.sender */\n      caller\n        /* \"Campaign.sol\":618:639  msg.sender == manager */\n      0xffffffffffffffffffffffffffffffffffffffff\n      and\n      eq\n        /* \"Campaign.sol\":610:640  require(msg.sender == manager) */\n      tag_88\n      jumpi\n      0x00\n      dup1\n      revert\n    tag_88:\n        /* \"Campaign.sol\":1531:1566  Request storage newRequestInStorage */\n      0x00\n        /* \"Campaign.sol\":1569:1577  requests */\n      0x03\n        /* \"Campaign.sol\":1569:1584  requests.push() */\n      0x01\n      dup2\n      0x01\n      dup2\n      sload\n      add\n      dup1\n      dup3\n      sstore\n      dup1\n      swap2\n      pop\n      pop\n      sub\n      swap1\n      0x00\n      mstore\n      keccak256(0x00, 0x20)\n      swap1\n      0x05\n      mul\n      add\n        /* \"Campaign.sol\":1531:1584  Request storage newRequestInStorage = requests.push() */\n      swap1\n      pop\n        /* \"Campaign.sol\":1628:1639  description */\n      dup4\n        /* \"Campaign.sol\":1594:1613  newRequestInStorage */\n      dup2\n        /* \"Campaign.sol\":1594:1625  newRequestInStorage.description */\n      0x00\n      add\n        /* \"Campaign.sol\":1594:1639  newRequestInStorage.description = description */\n      swap1\n      dup1\n      mload\n      swap1\n      0x20\n      add\n      swap1\n      tag_91\n      swap3\n      swap2\n      swap1\n      tag_92\n      jump\t// in\n    tag_91:\n      pop\n        /* \"Campaign.sol\":1677:1682  value */\n      dup3\n        /* \"Campaign.sol\":1649:1668  newRequestInStorage */\n      dup2\n        /* \"Campaign.sol\":1649:1674  newRequestInStorage.value */\n      0x01\n      add\n        /* \"Campaign.sol\":1649:1682  newRequestInStorage.value = value */\n      dup2\n      swap1\n      sstore\n      pop\n        /* \"Campaign.sol\":1724:1733  recipient */\n      dup2\n        /* \"Campaign.sol\":1692:1711  newRequestInStorage */\n      dup2\n        /* \"Campaign.sol\":1692:1721  newRequestInStorage.recipient */\n      0x02\n      add\n      0x00\n        /* \"Campaign.sol\":1692:1733  newRequestInStorage.recipient = recipient */\n      0x0100\n      exp\n      dup2\n      sload\n      dup2\n      0xffffffffffffffffffffffffffffffffffffffff\n      mul\n      not\n      and\n      swap1\n      dup4\n      0xffffffffffffffffffffffffffffffffffffffff\n      and\n      mul\n      or\n      swap1\n      sstore\n      pop\n        /* \"Campaign.sol\":1774:1779  false */\n      0x00\n        /* \"Campaign.sol\":1743:1762  newRequestInStorage */\n      dup2\n        /* \"Campaign.sol\":1743:1771  newRequestInStorage.complete */\n      0x02\n      add\n      0x14\n        /* \"Campaign.sol\":1743:1779  newRequestInStorage.complete = false */\n      0x0100\n      exp\n      dup2\n      sload\n      dup2\n      0xff\n      mul\n      not\n      and\n      swap1\n      dup4\n      iszero\n      iszero\n      mul\n      or\n      swap1\n      sstore\n      pop\n        /* \"Campaign.sol\":1825:1826  0 */\n      0x00\n        /* \"Campaign.sol\":1789:1808  newRequestInStorage */\n      dup2\n        /* \"Campaign.sol\":1789:1822  newRequestInStorage.approvalCount */\n      0x03\n      add\n        /* \"Campaign.sol\":1789:1826  newRequestInStorage.approvalCount = 0 */\n      dup2\n      swap1\n      sstore\n      pop\n        /* \"Campaign.sol\":1836:1848  currentIndex */\n      0x04\n      0x00\n        /* \"Campaign.sol\":1836:1850  currentIndex++ */\n      dup2\n      sload\n      dup1\n      swap3\n      swap2\n      swap1\n      tag_93\n      swap1\n      tag_94\n      jump\t// in\n    tag_93:\n      swap2\n      swap1\n      pop\n      sstore\n      pop\n        /* \"Campaign.sol\":1521:1857  {... */\n      pop\n        /* \"Campaign.sol\":1373:1857  function createRequest(... */\n      pop\n      pop\n      pop\n      jump\t// out\n        /* \"Campaign.sol\":386:420  uint256 public minimumContribution */\n    tag_56:\n      sload(0x01)\n      dup2\n      jump\t// out\n        /* \"Campaign.sol\":844:1230  function contribute() public payable {... */\n    tag_59:\n        /* \"Campaign.sol\":1008:1027  minimumContribution */\n      sload(0x01)\n        /* \"Campaign.sol\":996:1005  msg.value */\n      callvalue\n        /* \"Campaign.sol\":996:1027  msg.value > minimumContribution */\n      gt\n        /* \"Campaign.sol\":988:1028  require(msg.value > minimumContribution) */\n      tag_96\n      jumpi\n      0x00\n      dup1\n      revert\n    tag_96:\n        /* \"Campaign.sol\":1062:1066  true */\n      0x01\n        /* \"Campaign.sol\":1038:1047  approvers */\n      0x02\n        /* \"Campaign.sol\":1038:1059  approvers[msg.sender] */\n      0x00\n        /* \"Campaign.sol\":1048:1058  msg.sender */\n      caller\n        /* \"Campaign.sol\":1038:1059  approvers[msg.sender] */\n      0xffffffffffffffffffffffffffffffffffffffff\n      and\n      0xffffffffffffffffffffffffffffffffffffffff\n      and\n      dup2\n      mstore\n      0x20\n      add\n      swap1\n      dup2\n      mstore\n      0x20\n      add\n      0x00\n      keccak256\n      0x00\n        /* \"Campaign.sol\":1038:1066  approvers[msg.sender] = true */\n      0x0100\n      exp\n      dup2\n      sload\n      dup2\n      0xff\n      mul\n      not\n      and\n      swap1\n      dup4\n      iszero\n      iszero\n      mul\n      or\n      swap1\n      sstore\n      pop\n        /* \"Campaign.sol\":1207:1221  approversCount */\n      0x05\n      0x00\n        /* \"Campaign.sol\":1207:1223  approversCount++ */\n      dup2\n      sload\n      dup1\n      swap3\n      swap2\n      swap1\n      tag_97\n      swap1\n      tag_94\n      jump\t// in\n    tag_97:\n      swap2\n      swap1\n      pop\n      sstore\n      pop\n        /* \"Campaign.sol\":844:1230  function contribute() public payable {... */\n      jump\t// out\n        /* \"Campaign.sol\":1940:2212  function approveRequest(uint256 index) public {... */\n    tag_63:\n        /* \"Campaign.sol\":1996:2019  Request storage request */\n      0x00\n        /* \"Campaign.sol\":2022:2030  requests */\n      0x03\n        /* \"Campaign.sol\":2031:2036  index */\n      dup3\n        /* \"Campaign.sol\":2022:2037  requests[index] */\n      dup2\n      sload\n      dup2\n      lt\n      tag_99\n      jumpi\n      tag_100\n      tag_69\n      jump\t// in\n    tag_100:\n    tag_99:\n      swap1\n      0x00\n      mstore\n      keccak256(0x00, 0x20)\n      swap1\n      0x05\n      mul\n      add\n        /* \"Campaign.sol\":1996:2037  Request storage request = requests[index] */\n      swap1\n      pop\n        /* \"Campaign.sol\":2055:2064  approvers */\n      0x02\n        /* \"Campaign.sol\":2055:2076  approvers[msg.sender] */\n      0x00\n        /* \"Campaign.sol\":2065:2075  msg.sender */\n      caller\n        /* \"Campaign.sol\":2055:2076  approvers[msg.sender] */\n      0xffffffffffffffffffffffffffffffffffffffff\n      and\n      0xffffffffffffffffffffffffffffffffffffffff\n      and\n      dup2\n      mstore\n      0x20\n      add\n      swap1\n      dup2\n      mstore\n      0x20\n      add\n      0x00\n      keccak256\n      0x00\n      swap1\n      sload\n      swap1\n      0x0100\n      exp\n      swap1\n      div\n      0xff\n      and\n        /* \"Campaign.sol\":2047:2077  require(approvers[msg.sender]) */\n      tag_102\n      jumpi\n      0x00\n      dup1\n      revert\n    tag_102:\n        /* \"Campaign.sol\":2096:2103  request */\n      dup1\n        /* \"Campaign.sol\":2096:2113  request.approvals */\n      0x04\n      add\n        /* \"Campaign.sol\":2096:2125  request.approvals[msg.sender] */\n      0x00\n        /* \"Campaign.sol\":2114:2124  msg.sender */\n      caller\n        /* \"Campaign.sol\":2096:2125  request.approvals[msg.sender] */\n      0xffffffffffffffffffffffffffffffffffffffff\n      and\n      0xffffffffffffffffffffffffffffffffffffffff\n      and\n      dup2\n      mstore\n      0x20\n      add\n      swap1\n      dup2\n      mstore\n      0x20\n      add\n      0x00\n      keccak256\n      0x00\n      swap1\n      sload\n      swap1\n      0x0100\n      exp\n      swap1\n      div\n      0xff\n      and\n        /* \"Campaign.sol\":2095:2125  !request.approvals[msg.sender] */\n      iszero\n        /* \"Campaign.sol\":2087:2126  require(!request.approvals[msg.sender]) */\n      tag_103\n      jumpi\n      0x00\n      dup1\n      revert\n    tag_103:\n        /* \"Campaign.sol\":2168:2172  true */\n      0x01\n        /* \"Campaign.sol\":2136:2143  request */\n      dup2\n        /* \"Campaign.sol\":2136:2153  request.approvals */\n      0x04\n      add\n        /* \"Campaign.sol\":2136:2165  request.approvals[msg.sender] */\n      0x00\n        /* \"Campaign.sol\":2154:2164  msg.sender */\n      caller\n        /* \"Campaign.sol\":2136:2165  request.approvals[msg.sender] */\n      0xffffffffffffffffffffffffffffffffffffffff\n      and\n      0xffffffffffffffffffffffffffffffffffffffff\n      and\n      dup2\n      mstore\n      0x20\n      add\n      swap1\n      dup2\n      mstore\n      0x20\n      add\n      0x00\n      keccak256\n      0x00\n        /* \"Campaign.sol\":2136:2172  request.approvals[msg.sender] = true */\n      0x0100\n      exp\n      dup2\n      sload\n      dup2\n      0xff\n      mul\n      not\n      and\n      swap1\n      dup4\n      iszero\n      iszero\n      mul\n      or\n      swap1\n      sstore\n      pop\n        /* \"Campaign.sol\":2182:2189  request */\n      dup1\n        /* \"Campaign.sol\":2182:2203  request.approvalCount */\n      0x03\n      add\n      0x00\n        /* \"Campaign.sol\":2182:2205  request.approvalCount++ */\n      dup2\n      sload\n      dup1\n      swap3\n      swap2\n      swap1\n      tag_104\n      swap1\n      tag_94\n      jump\t// in\n    tag_104:\n      swap2\n      swap1\n      pop\n      sstore\n      pop\n        /* \"Campaign.sol\":1986:2212  {... */\n      pop\n        /* \"Campaign.sol\":1940:2212  function approveRequest(uint256 index) public {... */\n      pop\n      jump\t// out\n    tag_92:\n      dup3\n      dup1\n      sload\n      tag_105\n      swap1\n      tag_82\n      jump\t// in\n    tag_105:\n      swap1\n      0x00\n      mstore\n      keccak256(0x00, 0x20)\n      swap1\n      0x1f\n      add\n      0x20\n      swap1\n      div\n      dup2\n      add\n      swap3\n      dup3\n      tag_107\n      jumpi\n      0x00\n      dup6\n      sstore\n      jump(tag_106)\n    tag_107:\n      dup3\n      0x1f\n      lt\n      tag_108\n      jumpi\n      dup1\n      mload\n      not(0xff)\n      and\n      dup4\n      dup1\n      add\n      or\n      dup6\n      sstore\n      jump(tag_106)\n    tag_108:\n      dup3\n      dup1\n      add\n      0x01\n      add\n      dup6\n      sstore\n      dup3\n      iszero\n      tag_106\n      jumpi\n      swap2\n      dup3\n      add\n    tag_109:\n      dup3\n      dup2\n      gt\n      iszero\n      tag_110\n      jumpi\n      dup3\n      mload\n      dup3\n      sstore\n      swap2\n      0x20\n      add\n      swap2\n      swap1\n      0x01\n      add\n      swap1\n      jump(tag_109)\n    tag_110:\n    tag_106:\n      pop\n      swap1\n      pop\n      tag_111\n      swap2\n      swap1\n      tag_112\n      jump\t// in\n    tag_111:\n      pop\n      swap1\n      jump\t// out\n    tag_112:\n    tag_113:\n      dup1\n      dup3\n      gt\n      iszero\n      tag_114\n      jumpi\n      0x00\n      dup2\n      0x00\n      swap1\n      sstore\n      pop\n      0x01\n      add\n      jump(tag_113)\n    tag_114:\n      pop\n      swap1\n      jump\t// out\n        /* \"#utility.yul\":7:82   */\n    tag_115:\n        /* \"#utility.yul\":40:46   */\n      0x00\n        /* \"#utility.yul\":73:75   */\n      0x40\n        /* \"#utility.yul\":67:76   */\n      mload\n        /* \"#utility.yul\":57:76   */\n      swap1\n      pop\n        /* \"#utility.yul\":7:82   */\n      swap1\n      jump\t// out\n        /* \"#utility.yul\":88:205   */\n    tag_116:\n        /* \"#utility.yul\":197:198   */\n      0x00\n        /* \"#utility.yul\":194:195   */\n      dup1\n        /* \"#utility.yul\":187:199   */\n      revert\n        /* \"#utility.yul\":211:328   */\n    tag_117:\n        /* \"#utility.yul\":320:321   */\n      0x00\n        /* \"#utility.yul\":317:318   */\n      dup1\n        /* \"#utility.yul\":310:322   */\n      revert\n        /* \"#utility.yul\":334:411   */\n    tag_118:\n        /* \"#utility.yul\":371:378   */\n      0x00\n        /* \"#utility.yul\":400:405   */\n      dup2\n        /* \"#utility.yul\":389:405   */\n      swap1\n      pop\n        /* \"#utility.yul\":334:411   */\n      swap2\n      swap1\n      pop\n      jump\t// out\n        /* \"#utility.yul\":417:539   */\n    tag_119:\n        /* \"#utility.yul\":490:514   */\n      tag_156\n        /* \"#utility.yul\":508:513   */\n      dup2\n        /* \"#utility.yul\":490:514   */\n      tag_118\n      jump\t// in\n    tag_156:\n        /* \"#utility.yul\":483:488   */\n      dup2\n        /* \"#utility.yul\":480:515   */\n      eq\n        /* \"#utility.yul\":470:533   */\n      tag_157\n      jumpi\n        /* \"#utility.yul\":529:530   */\n      0x00\n        /* \"#utility.yul\":526:527   */\n      dup1\n        /* \"#utility.yul\":519:531   */\n      revert\n        /* \"#utility.yul\":470:533   */\n    tag_157:\n        /* \"#utility.yul\":417:539   */\n      pop\n      jump\t// out\n        /* \"#utility.yul\":545:684   */\n    tag_120:\n        /* \"#utility.yul\":591:596   */\n      0x00\n        /* \"#utility.yul\":629:635   */\n      dup2\n        /* \"#utility.yul\":616:636   */\n      calldataload\n        /* \"#utility.yul\":607:636   */\n      swap1\n      pop\n        /* \"#utility.yul\":645:678   */\n      tag_159\n        /* \"#utility.yul\":672:677   */\n      dup2\n        /* \"#utility.yul\":645:678   */\n      tag_119\n      jump\t// in\n    tag_159:\n        /* \"#utility.yul\":545:684   */\n      swap3\n      swap2\n      pop\n      pop\n      jump\t// out\n        /* \"#utility.yul\":690:1019   */\n    tag_16:\n        /* \"#utility.yul\":749:755   */\n      0x00\n        /* \"#utility.yul\":798:800   */\n      0x20\n        /* \"#utility.yul\":786:795   */\n      dup3\n        /* \"#utility.yul\":777:784   */\n      dup5\n        /* \"#utility.yul\":773:796   */\n      sub\n        /* \"#utility.yul\":769:801   */\n      slt\n        /* \"#utility.yul\":766:885   */\n      iszero\n      tag_161\n      jumpi\n        /* \"#utility.yul\":804:883   */\n      tag_162\n      tag_116\n      jump\t// in\n    tag_162:\n        /* \"#utility.yul\":766:885   */\n    tag_161:\n        /* \"#utility.yul\":924:925   */\n      0x00\n        /* \"#utility.yul\":949:1002   */\n      tag_163\n        /* \"#utility.yul\":994:1001   */\n      dup5\n        /* \"#utility.yul\":985:991   */\n      dup3\n        /* \"#utility.yul\":974:983   */\n      dup6\n        /* \"#utility.yul\":970:992   */\n      add\n        /* \"#utility.yul\":949:1002   */\n      tag_120\n      jump\t// in\n    tag_163:\n        /* \"#utility.yul\":939:1002   */\n      swap2\n      pop\n        /* \"#utility.yul\":895:1012   */\n      pop\n        /* \"#utility.yul\":690:1019   */\n      swap3\n      swap2\n      pop\n      pop\n      jump\t// out\n        /* \"#utility.yul\":1025:1151   */\n    tag_121:\n        /* \"#utility.yul\":1062:1069   */\n      0x00\n        /* \"#utility.yul\":1102:1144   */\n      0xffffffffffffffffffffffffffffffffffffffff\n        /* \"#utility.yul\":1095:1100   */\n      dup3\n        /* \"#utility.yul\":1091:1145   */\n      and\n        /* \"#utility.yul\":1080:1145   */\n      swap1\n      pop\n        /* \"#utility.yul\":1025:1151   */\n      swap2\n      swap1\n      pop\n      jump\t// out\n        /* \"#utility.yul\":1157:1253   */\n    tag_122:\n        /* \"#utility.yul\":1194:1201   */\n      0x00\n        /* \"#utility.yul\":1223:1247   */\n      tag_166\n        /* \"#utility.yul\":1241:1246   */\n      dup3\n        /* \"#utility.yul\":1223:1247   */\n      tag_121\n      jump\t// in\n    tag_166:\n        /* \"#utility.yul\":1212:1247   */\n      swap1\n      pop\n        /* \"#utility.yul\":1157:1253   */\n      swap2\n      swap1\n      pop\n      jump\t// out\n        /* \"#utility.yul\":1259:1381   */\n    tag_123:\n        /* \"#utility.yul\":1332:1356   */\n      tag_168\n        /* \"#utility.yul\":1350:1355   */\n      dup2\n        /* \"#utility.yul\":1332:1356   */\n      tag_122\n      jump\t// in\n    tag_168:\n        /* \"#utility.yul\":1325:1330   */\n      dup2\n        /* \"#utility.yul\":1322:1357   */\n      eq\n        /* \"#utility.yul\":1312:1375   */\n      tag_169\n      jumpi\n        /* \"#utility.yul\":1371:1372   */\n      0x00\n        /* \"#utility.yul\":1368:1369   */\n      dup1\n        /* \"#utility.yul\":1361:1373   */\n      revert\n        /* \"#utility.yul\":1312:1375   */\n    tag_169:\n        /* \"#utility.yul\":1259:1381   */\n      pop\n      jump\t// out\n        /* \"#utility.yul\":1387:1526   */\n    tag_124:\n        /* \"#utility.yul\":1433:1438   */\n      0x00\n        /* \"#utility.yul\":1471:1477   */\n      dup2\n        /* \"#utility.yul\":1458:1478   */\n      calldataload\n        /* \"#utility.yul\":1449:1478   */\n      swap1\n      pop\n        /* \"#utility.yul\":1487:1520   */\n      tag_171\n        /* \"#utility.yul\":1514:1519   */\n      dup2\n        /* \"#utility.yul\":1487:1520   */\n      tag_123\n      jump\t// in\n    tag_171:\n        /* \"#utility.yul\":1387:1526   */\n      swap3\n      swap2\n      pop\n      pop\n      jump\t// out\n        /* \"#utility.yul\":1532:1861   */\n    tag_21:\n        /* \"#utility.yul\":1591:1597   */\n      0x00\n        /* \"#utility.yul\":1640:1642   */\n      0x20\n        /* \"#utility.yul\":1628:1637   */\n      dup3\n        /* \"#utility.yul\":1619:1626   */\n      dup5\n        /* \"#utility.yul\":1615:1638   */\n      sub\n        /* \"#utility.yul\":1611:1643   */\n      slt\n        /* \"#utility.yul\":1608:1727   */\n      iszero\n      tag_173\n      jumpi\n        /* \"#utility.yul\":1646:1725   */\n      tag_174\n      tag_116\n      jump\t// in\n    tag_174:\n        /* \"#utility.yul\":1608:1727   */\n    tag_173:\n        /* \"#utility.yul\":1766:1767   */\n      0x00\n        /* \"#utility.yul\":1791:1844   */\n      tag_175\n        /* \"#utility.yul\":1836:1843   */\n      dup5\n        /* \"#utility.yul\":1827:1833   */\n      dup3\n        /* \"#utility.yul\":1816:1825   */\n      dup6\n        /* \"#utility.yul\":1812:1834   */\n      add\n        /* \"#utility.yul\":1791:1844   */\n      tag_124\n      jump\t// in\n    tag_175:\n        /* \"#utility.yul\":1781:1844   */\n      swap2\n      pop\n        /* \"#utility.yul\":1737:1854   */\n      pop\n        /* \"#utility.yul\":1532:1861   */\n      swap3\n      swap2\n      pop\n      pop\n      jump\t// out\n        /* \"#utility.yul\":1867:1957   */\n    tag_125:\n        /* \"#utility.yul\":1901:1908   */\n      0x00\n        /* \"#utility.yul\":1944:1949   */\n      dup2\n        /* \"#utility.yul\":1937:1950   */\n      iszero\n        /* \"#utility.yul\":1930:1951   */\n      iszero\n        /* \"#utility.yul\":1919:1951   */\n      swap1\n      pop\n        /* \"#utility.yul\":1867:1957   */\n      swap2\n      swap1\n      pop\n      jump\t// out\n        /* \"#utility.yul\":1963:2072   */\n    tag_126:\n        /* \"#utility.yul\":2044:2065   */\n      tag_178\n        /* \"#utility.yul\":2059:2064   */\n      dup2\n        /* \"#utility.yul\":2044:2065   */\n      tag_125\n      jump\t// in\n    tag_178:\n        /* \"#utility.yul\":2039:2042   */\n      dup3\n        /* \"#utility.yul\":2032:2066   */\n      mstore\n        /* \"#utility.yul\":1963:2072   */\n      pop\n      pop\n      jump\t// out\n        /* \"#utility.yul\":2078:2288   */\n    tag_24:\n        /* \"#utility.yul\":2165:2169   */\n      0x00\n        /* \"#utility.yul\":2203:2205   */\n      0x20\n        /* \"#utility.yul\":2192:2201   */\n      dup3\n        /* \"#utility.yul\":2188:2206   */\n      add\n        /* \"#utility.yul\":2180:2206   */\n      swap1\n      pop\n        /* \"#utility.yul\":2216:2281   */\n      tag_180\n        /* \"#utility.yul\":2278:2279   */\n      0x00\n        /* \"#utility.yul\":2267:2276   */\n      dup4\n        /* \"#utility.yul\":2263:2280   */\n      add\n        /* \"#utility.yul\":2254:2260   */\n      dup5\n        /* \"#utility.yul\":2216:2281   */\n      tag_126\n      jump\t// in\n    tag_180:\n        /* \"#utility.yul\":2078:2288   */\n      swap3\n      swap2\n      pop\n      pop\n      jump\t// out\n        /* \"#utility.yul\":2294:2412   */\n    tag_127:\n        /* \"#utility.yul\":2381:2405   */\n      tag_182\n        /* \"#utility.yul\":2399:2404   */\n      dup2\n        /* \"#utility.yul\":2381:2405   */\n      tag_118\n      jump\t// in\n    tag_182:\n        /* \"#utility.yul\":2376:2379   */\n      dup3\n        /* \"#utility.yul\":2369:2406   */\n      mstore\n        /* \"#utility.yul\":2294:2412   */\n      pop\n      pop\n      jump\t// out\n        /* \"#utility.yul\":2418:2640   */\n    tag_29:\n        /* \"#utility.yul\":2511:2515   */\n      0x00\n        /* \"#utility.yul\":2549:2551   */\n      0x20\n        /* \"#utility.yul\":2538:2547   */\n      dup3\n        /* \"#utility.yul\":2534:2552   */\n      add\n        /* \"#utility.yul\":2526:2552   */\n      swap1\n      pop\n        /* \"#utility.yul\":2562:2633   */\n      tag_184\n        /* \"#utility.yul\":2630:2631   */\n      0x00\n        /* \"#utility.yul\":2619:2628   */\n      dup4\n        /* \"#utility.yul\":2615:2632   */\n      add\n        /* \"#utility.yul\":2606:2612   */\n      dup5\n        /* \"#utility.yul\":2562:2633   */\n      tag_127\n      jump\t// in\n    tag_184:\n        /* \"#utility.yul\":2418:2640   */\n      swap3\n      swap2\n      pop\n      pop\n      jump\t// out\n        /* \"#utility.yul\":2646:2764   */\n    tag_128:\n        /* \"#utility.yul\":2733:2757   */\n      tag_186\n        /* \"#utility.yul\":2751:2756   */\n      dup2\n        /* \"#utility.yul\":2733:2757   */\n      tag_122\n      jump\t// in\n    tag_186:\n        /* \"#utility.yul\":2728:2731   */\n      dup3\n        /* \"#utility.yul\":2721:2758   */\n      mstore\n        /* \"#utility.yul\":2646:2764   */\n      pop\n      pop\n      jump\t// out\n        /* \"#utility.yul\":2770:3434   */\n    tag_34:\n        /* \"#utility.yul\":2975:2979   */\n      0x00\n        /* \"#utility.yul\":3013:3016   */\n      0xa0\n        /* \"#utility.yul\":3002:3011   */\n      dup3\n        /* \"#utility.yul\":2998:3017   */\n      add\n        /* \"#utility.yul\":2990:3017   */\n      swap1\n      pop\n        /* \"#utility.yul\":3027:3098   */\n      tag_188\n        /* \"#utility.yul\":3095:3096   */\n      0x00\n        /* \"#utility.yul\":3084:3093   */\n      dup4\n        /* \"#utility.yul\":3080:3097   */\n      add\n        /* \"#utility.yul\":3071:3077   */\n      dup9\n        /* \"#utility.yul\":3027:3098   */\n      tag_127\n      jump\t// in\n    tag_188:\n        /* \"#utility.yul\":3108:3180   */\n      tag_189\n        /* \"#utility.yul\":3176:3178   */\n      0x20\n        /* \"#utility.yul\":3165:3174   */\n      dup4\n        /* \"#utility.yul\":3161:3179   */\n      add\n        /* \"#utility.yul\":3152:3158   */\n      dup8\n        /* \"#utility.yul\":3108:3180   */\n      tag_127\n      jump\t// in\n    tag_189:\n        /* \"#utility.yul\":3190:3262   */\n      tag_190\n        /* \"#utility.yul\":3258:3260   */\n      0x40\n        /* \"#utility.yul\":3247:3256   */\n      dup4\n        /* \"#utility.yul\":3243:3261   */\n      add\n        /* \"#utility.yul\":3234:3240   */\n      dup7\n        /* \"#utility.yul\":3190:3262   */\n      tag_127\n      jump\t// in\n    tag_190:\n        /* \"#utility.yul\":3272:3344   */\n      tag_191\n        /* \"#utility.yul\":3340:3342   */\n      0x60\n        /* \"#utility.yul\":3329:3338   */\n      dup4\n        /* \"#utility.yul\":3325:3343   */\n      add\n        /* \"#utility.yul\":3316:3322   */\n      dup6\n        /* \"#utility.yul\":3272:3344   */\n      tag_127\n      jump\t// in\n    tag_191:\n        /* \"#utility.yul\":3354:3427   */\n      tag_192\n        /* \"#utility.yul\":3422:3425   */\n      0x80\n        /* \"#utility.yul\":3411:3420   */\n      dup4\n        /* \"#utility.yul\":3407:3426   */\n      add\n        /* \"#utility.yul\":3398:3404   */\n      dup5\n        /* \"#utility.yul\":3354:3427   */\n      tag_128\n      jump\t// in\n    tag_192:\n        /* \"#utility.yul\":2770:3434   */\n      swap7\n      swap6\n      pop\n      pop\n      pop\n      pop\n      pop\n      pop\n      jump\t// out\n        /* \"#utility.yul\":3440:3544   */\n    tag_129:\n        /* \"#utility.yul\":3485:3492   */\n      0x00\n        /* \"#utility.yul\":3514:3538   */\n      tag_194\n        /* \"#utility.yul\":3532:3537   */\n      dup3\n        /* \"#utility.yul\":3514:3538   */\n      tag_121\n      jump\t// in\n    tag_194:\n        /* \"#utility.yul\":3503:3538   */\n      swap1\n      pop\n        /* \"#utility.yul\":3440:3544   */\n      swap2\n      swap1\n      pop\n      jump\t// out\n        /* \"#utility.yul\":3550:3692   */\n    tag_130:\n        /* \"#utility.yul\":3653:3685   */\n      tag_196\n        /* \"#utility.yul\":3679:3684   */\n      dup2\n        /* \"#utility.yul\":3653:3685   */\n      tag_129\n      jump\t// in\n    tag_196:\n        /* \"#utility.yul\":3648:3651   */\n      dup3\n        /* \"#utility.yul\":3641:3686   */\n      mstore\n        /* \"#utility.yul\":3550:3692   */\n      pop\n      pop\n      jump\t// out\n        /* \"#utility.yul\":3698:3952   */\n    tag_39:\n        /* \"#utility.yul\":3807:3811   */\n      0x00\n        /* \"#utility.yul\":3845:3847   */\n      0x20\n        /* \"#utility.yul\":3834:3843   */\n      dup3\n        /* \"#utility.yul\":3830:3848   */\n      add\n        /* \"#utility.yul\":3822:3848   */\n      swap1\n      pop\n        /* \"#utility.yul\":3858:3945   */\n      tag_198\n        /* \"#utility.yul\":3942:3943   */\n      0x00\n        /* \"#utility.yul\":3931:3940   */\n      dup4\n        /* \"#utility.yul\":3927:3944   */\n      add\n        /* \"#utility.yul\":3918:3924   */\n      dup5\n        /* \"#utility.yul\":3858:3945   */\n      tag_130\n      jump\t// in\n    tag_198:\n        /* \"#utility.yul\":3698:3952   */\n      swap3\n      swap2\n      pop\n      pop\n      jump\t// out\n        /* \"#utility.yul\":3958:4057   */\n    tag_131:\n        /* \"#utility.yul\":4010:4016   */\n      0x00\n        /* \"#utility.yul\":4044:4049   */\n      dup2\n        /* \"#utility.yul\":4038:4050   */\n      mload\n        /* \"#utility.yul\":4028:4050   */\n      swap1\n      pop\n        /* \"#utility.yul\":3958:4057   */\n      swap2\n      swap1\n      pop\n      jump\t// out\n        /* \"#utility.yul\":4063:4232   */\n    tag_132:\n        /* \"#utility.yul\":4147:4158   */\n      0x00\n        /* \"#utility.yul\":4181:4187   */\n      dup3\n        /* \"#utility.yul\":4176:4179   */\n      dup3\n        /* \"#utility.yul\":4169:4188   */\n      mstore\n        /* \"#utility.yul\":4221:4225   */\n      0x20\n        /* \"#utility.yul\":4216:4219   */\n      dup3\n        /* \"#utility.yul\":4212:4226   */\n      add\n        /* \"#utility.yul\":4197:4226   */\n      swap1\n      pop\n        /* \"#utility.yul\":4063:4232   */\n      swap3\n      swap2\n      pop\n      pop\n      jump\t// out\n        /* \"#utility.yul\":4238:4545   */\n    tag_133:\n        /* \"#utility.yul\":4306:4307   */\n      0x00\n        /* \"#utility.yul\":4316:4429   */\n    tag_202:\n        /* \"#utility.yul\":4330:4336   */\n      dup4\n        /* \"#utility.yul\":4327:4328   */\n      dup2\n        /* \"#utility.yul\":4324:4337   */\n      lt\n        /* \"#utility.yul\":4316:4429   */\n      iszero\n      tag_204\n      jumpi\n        /* \"#utility.yul\":4415:4416   */\n      dup1\n        /* \"#utility.yul\":4410:4413   */\n      dup3\n        /* \"#utility.yul\":4406:4417   */\n      add\n        /* \"#utility.yul\":4400:4418   */\n      mload\n        /* \"#utility.yul\":4396:4397   */\n      dup2\n        /* \"#utility.yul\":4391:4394   */\n      dup5\n        /* \"#utility.yul\":4387:4398   */\n      add\n        /* \"#utility.yul\":4380:4419   */\n      mstore\n        /* \"#utility.yul\":4352:4354   */\n      0x20\n        /* \"#utility.yul\":4349:4350   */\n      dup2\n        /* \"#utility.yul\":4345:4355   */\n      add\n        /* \"#utility.yul\":4340:4355   */\n      swap1\n      pop\n        /* \"#utility.yul\":4316:4429   */\n      jump(tag_202)\n    tag_204:\n        /* \"#utility.yul\":4447:4453   */\n      dup4\n        /* \"#utility.yul\":4444:4445   */\n      dup2\n        /* \"#utility.yul\":4441:4454   */\n      gt\n        /* \"#utility.yul\":4438:4539   */\n      iszero\n      tag_205\n      jumpi\n        /* \"#utility.yul\":4527:4528   */\n      0x00\n        /* \"#utility.yul\":4518:4524   */\n      dup5\n        /* \"#utility.yul\":4513:4516   */\n      dup5\n        /* \"#utility.yul\":4509:4525   */\n      add\n        /* \"#utility.yul\":4502:4529   */\n      mstore\n        /* \"#utility.yul\":4438:4539   */\n    tag_205:\n        /* \"#utility.yul\":4287:4545   */\n      pop\n        /* \"#utility.yul\":4238:4545   */\n      pop\n      pop\n      pop\n      jump\t// out\n        /* \"#utility.yul\":4551:4653   */\n    tag_134:\n        /* \"#utility.yul\":4592:4598   */\n      0x00\n        /* \"#utility.yul\":4643:4645   */\n      0x1f\n        /* \"#utility.yul\":4639:4646   */\n      not\n        /* \"#utility.yul\":4634:4636   */\n      0x1f\n        /* \"#utility.yul\":4627:4632   */\n      dup4\n        /* \"#utility.yul\":4623:4637   */\n      add\n        /* \"#utility.yul\":4619:4647   */\n      and\n        /* \"#utility.yul\":4609:4647   */\n      swap1\n      pop\n        /* \"#utility.yul\":4551:4653   */\n      swap2\n      swap1\n      pop\n      jump\t// out\n        /* \"#utility.yul\":4659:5023   */\n    tag_135:\n        /* \"#utility.yul\":4747:4750   */\n      0x00\n        /* \"#utility.yul\":4775:4814   */\n      tag_208\n        /* \"#utility.yul\":4808:4813   */\n      dup3\n        /* \"#utility.yul\":4775:4814   */\n      tag_131\n      jump\t// in\n    tag_208:\n        /* \"#utility.yul\":4830:4901   */\n      tag_209\n        /* \"#utility.yul\":4894:4900   */\n      dup2\n        /* \"#utility.yul\":4889:4892   */\n      dup6\n        /* \"#utility.yul\":4830:4901   */\n      tag_132\n      jump\t// in\n    tag_209:\n        /* \"#utility.yul\":4823:4901   */\n      swap4\n      pop\n        /* \"#utility.yul\":4910:4962   */\n      tag_210\n        /* \"#utility.yul\":4955:4961   */\n      dup2\n        /* \"#utility.yul\":4950:4953   */\n      dup6\n        /* \"#utility.yul\":4943:4947   */\n      0x20\n        /* \"#utility.yul\":4936:4941   */\n      dup7\n        /* \"#utility.yul\":4932:4948   */\n      add\n        /* \"#utility.yul\":4910:4962   */\n      tag_133\n      jump\t// in\n    tag_210:\n        /* \"#utility.yul\":4987:5016   */\n      tag_211\n        /* \"#utility.yul\":5009:5015   */\n      dup2\n        /* \"#utility.yul\":4987:5016   */\n      tag_134\n      jump\t// in\n    tag_211:\n        /* \"#utility.yul\":4982:4985   */\n      dup5\n        /* \"#utility.yul\":4978:5017   */\n      add\n        /* \"#utility.yul\":4971:5017   */\n      swap2\n      pop\n        /* \"#utility.yul\":4751:5023   */\n      pop\n        /* \"#utility.yul\":4659:5023   */\n      swap3\n      swap2\n      pop\n      pop\n      jump\t// out\n        /* \"#utility.yul\":5029:5804   */\n    tag_45:\n        /* \"#utility.yul\":5264:5268   */\n      0x00\n        /* \"#utility.yul\":5302:5305   */\n      0xa0\n        /* \"#utility.yul\":5291:5300   */\n      dup3\n        /* \"#utility.yul\":5287:5306   */\n      add\n        /* \"#utility.yul\":5279:5306   */\n      swap1\n      pop\n        /* \"#utility.yul\":5352:5361   */\n      dup2\n        /* \"#utility.yul\":5346:5350   */\n      dup2\n        /* \"#utility.yul\":5342:5362   */\n      sub\n        /* \"#utility.yul\":5338:5339   */\n      0x00\n        /* \"#utility.yul\":5327:5336   */\n      dup4\n        /* \"#utility.yul\":5323:5340   */\n      add\n        /* \"#utility.yul\":5316:5363   */\n      mstore\n        /* \"#utility.yul\":5380:5458   */\n      tag_213\n        /* \"#utility.yul\":5453:5457   */\n      dup2\n        /* \"#utility.yul\":5444:5450   */\n      dup9\n        /* \"#utility.yul\":5380:5458   */\n      tag_135\n      jump\t// in\n    tag_213:\n        /* \"#utility.yul\":5372:5458   */\n      swap1\n      pop\n        /* \"#utility.yul\":5468:5540   */\n      tag_214\n        /* \"#utility.yul\":5536:5538   */\n      0x20\n        /* \"#utility.yul\":5525:5534   */\n      dup4\n        /* \"#utility.yul\":5521:5539   */\n      add\n        /* \"#utility.yul\":5512:5518   */\n      dup8\n        /* \"#utility.yul\":5468:5540   */\n      tag_127\n      jump\t// in\n    tag_214:\n        /* \"#utility.yul\":5550:5638   */\n      tag_215\n        /* \"#utility.yul\":5634:5636   */\n      0x40\n        /* \"#utility.yul\":5623:5632   */\n      dup4\n        /* \"#utility.yul\":5619:5637   */\n      add\n        /* \"#utility.yul\":5610:5616   */\n      dup7\n        /* \"#utility.yul\":5550:5638   */\n      tag_130\n      jump\t// in\n    tag_215:\n        /* \"#utility.yul\":5648:5714   */\n      tag_216\n        /* \"#utility.yul\":5710:5712   */\n      0x60\n        /* \"#utility.yul\":5699:5708   */\n      dup4\n        /* \"#utility.yul\":5695:5713   */\n      add\n        /* \"#utility.yul\":5686:5692   */\n      dup6\n        /* \"#utility.yul\":5648:5714   */\n      tag_126\n      jump\t// in\n    tag_216:\n        /* \"#utility.yul\":5724:5797   */\n      tag_217\n        /* \"#utility.yul\":5792:5795   */\n      0x80\n        /* \"#utility.yul\":5781:5790   */\n      dup4\n        /* \"#utility.yul\":5777:5796   */\n      add\n        /* \"#utility.yul\":5768:5774   */\n      dup5\n        /* \"#utility.yul\":5724:5797   */\n      tag_127\n      jump\t// in\n    tag_217:\n        /* \"#utility.yul\":5029:5804   */\n      swap7\n      swap6\n      pop\n      pop\n      pop\n      pop\n      pop\n      pop\n      jump\t// out\n        /* \"#utility.yul\":5810:5927   */\n    tag_136:\n        /* \"#utility.yul\":5919:5920   */\n      0x00\n        /* \"#utility.yul\":5916:5917   */\n      dup1\n        /* \"#utility.yul\":5909:5921   */\n      revert\n        /* \"#utility.yul\":5933:6050   */\n    tag_137:\n        /* \"#utility.yul\":6042:6043   */\n      0x00\n        /* \"#utility.yul\":6039:6040   */\n      dup1\n        /* \"#utility.yul\":6032:6044   */\n      revert\n        /* \"#utility.yul\":6056:6236   */\n    tag_138:\n        /* \"#utility.yul\":6104:6181   */\n      0x4e487b7100000000000000000000000000000000000000000000000000000000\n        /* \"#utility.yul\":6101:6102   */\n      0x00\n        /* \"#utility.yul\":6094:6182   */\n      mstore\n        /* \"#utility.yul\":6201:6205   */\n      0x41\n        /* \"#utility.yul\":6198:6199   */\n      0x04\n        /* \"#utility.yul\":6191:6206   */\n      mstore\n        /* \"#utility.yul\":6225:6229   */\n      0x24\n        /* \"#utility.yul\":6222:6223   */\n      0x00\n        /* \"#utility.yul\":6215:6230   */\n      revert\n        /* \"#utility.yul\":6242:6523   */\n    tag_139:\n        /* \"#utility.yul\":6325:6352   */\n      tag_222\n        /* \"#utility.yul\":6347:6351   */\n      dup3\n        /* \"#utility.yul\":6325:6352   */\n      tag_134\n      jump\t// in\n    tag_222:\n        /* \"#utility.yul\":6317:6323   */\n      dup2\n        /* \"#utility.yul\":6313:6353   */\n      add\n        /* \"#utility.yul\":6455:6461   */\n      dup2\n        /* \"#utility.yul\":6443:6453   */\n      dup2\n        /* \"#utility.yul\":6440:6462   */\n      lt\n        /* \"#utility.yul\":6419:6437   */\n      0xffffffffffffffff\n        /* \"#utility.yul\":6407:6417   */\n      dup3\n        /* \"#utility.yul\":6404:6438   */\n      gt\n        /* \"#utility.yul\":6401:6463   */\n      or\n        /* \"#utility.yul\":6398:6486   */\n      iszero\n      tag_223\n      jumpi\n        /* \"#utility.yul\":6466:6484   */\n      tag_224\n      tag_138\n      jump\t// in\n    tag_224:\n        /* \"#utility.yul\":6398:6486   */\n    tag_223:\n        /* \"#utility.yul\":6506:6516   */\n      dup1\n        /* \"#utility.yul\":6502:6504   */\n      0x40\n        /* \"#utility.yul\":6495:6517   */\n      mstore\n        /* \"#utility.yul\":6285:6523   */\n      pop\n        /* \"#utility.yul\":6242:6523   */\n      pop\n      pop\n      jump\t// out\n        /* \"#utility.yul\":6529:6658   */\n    tag_140:\n        /* \"#utility.yul\":6563:6569   */\n      0x00\n        /* \"#utility.yul\":6590:6610   */\n      tag_226\n      tag_115\n      jump\t// in\n    tag_226:\n        /* \"#utility.yul\":6580:6610   */\n      swap1\n      pop\n        /* \"#utility.yul\":6619:6652   */\n      tag_227\n        /* \"#utility.yul\":6647:6651   */\n      dup3\n        /* \"#utility.yul\":6639:6645   */\n      dup3\n        /* \"#utility.yul\":6619:6652   */\n      tag_139\n      jump\t// in\n    tag_227:\n        /* \"#utility.yul\":6529:6658   */\n      swap2\n      swap1\n      pop\n      jump\t// out\n        /* \"#utility.yul\":6664:6972   */\n    tag_141:\n        /* \"#utility.yul\":6726:6730   */\n      0x00\n        /* \"#utility.yul\":6816:6834   */\n      0xffffffffffffffff\n        /* \"#utility.yul\":6808:6814   */\n      dup3\n        /* \"#utility.yul\":6805:6835   */\n      gt\n        /* \"#utility.yul\":6802:6858   */\n      iszero\n      tag_229\n      jumpi\n        /* \"#utility.yul\":6838:6856   */\n      tag_230\n      tag_138\n      jump\t// in\n    tag_230:\n        /* \"#utility.yul\":6802:6858   */\n    tag_229:\n        /* \"#utility.yul\":6876:6905   */\n      tag_231\n        /* \"#utility.yul\":6898:6904   */\n      dup3\n        /* \"#utility.yul\":6876:6905   */\n      tag_134\n      jump\t// in\n    tag_231:\n        /* \"#utility.yul\":6868:6905   */\n      swap1\n      pop\n        /* \"#utility.yul\":6960:6964   */\n      0x20\n        /* \"#utility.yul\":6954:6958   */\n      dup2\n        /* \"#utility.yul\":6950:6965   */\n      add\n        /* \"#utility.yul\":6942:6965   */\n      swap1\n      pop\n        /* \"#utility.yul\":6664:6972   */\n      swap2\n      swap1\n      pop\n      jump\t// out\n        /* \"#utility.yul\":6978:7132   */\n    tag_142:\n        /* \"#utility.yul\":7062:7068   */\n      dup3\n        /* \"#utility.yul\":7057:7060   */\n      dup2\n        /* \"#utility.yul\":7052:7055   */\n      dup4\n        /* \"#utility.yul\":7039:7069   */\n      calldatacopy\n        /* \"#utility.yul\":7124:7125   */\n      0x00\n        /* \"#utility.yul\":7115:7121   */\n      dup4\n        /* \"#utility.yul\":7110:7113   */\n      dup4\n        /* \"#utility.yul\":7106:7122   */\n      add\n        /* \"#utility.yul\":7099:7126   */\n      mstore\n        /* \"#utility.yul\":6978:7132   */\n      pop\n      pop\n      pop\n      jump\t// out\n        /* \"#utility.yul\":7138:7550   */\n    tag_143:\n        /* \"#utility.yul\":7216:7221   */\n      0x00\n        /* \"#utility.yul\":7241:7307   */\n      tag_234\n        /* \"#utility.yul\":7257:7306   */\n      tag_235\n        /* \"#utility.yul\":7299:7305   */\n      dup5\n        /* \"#utility.yul\":7257:7306   */\n      tag_141\n      jump\t// in\n    tag_235:\n        /* \"#utility.yul\":7241:7307   */\n      tag_140\n      jump\t// in\n    tag_234:\n        /* \"#utility.yul\":7232:7307   */\n      swap1\n      pop\n        /* \"#utility.yul\":7330:7336   */\n      dup3\n        /* \"#utility.yul\":7323:7328   */\n      dup2\n        /* \"#utility.yul\":7316:7337   */\n      mstore\n        /* \"#utility.yul\":7368:7372   */\n      0x20\n        /* \"#utility.yul\":7361:7366   */\n      dup2\n        /* \"#utility.yul\":7357:7373   */\n      add\n        /* \"#utility.yul\":7406:7409   */\n      dup5\n        /* \"#utility.yul\":7397:7403   */\n      dup5\n        /* \"#utility.yul\":7392:7395   */\n      dup5\n        /* \"#utility.yul\":7388:7404   */\n      add\n        /* \"#utility.yul\":7385:7410   */\n      gt\n        /* \"#utility.yul\":7382:7494   */\n      iszero\n      tag_236\n      jumpi\n        /* \"#utility.yul\":7413:7492   */\n      tag_237\n      tag_137\n      jump\t// in\n    tag_237:\n        /* \"#utility.yul\":7382:7494   */\n    tag_236:\n        /* \"#utility.yul\":7503:7544   */\n      tag_238\n        /* \"#utility.yul\":7537:7543   */\n      dup5\n        /* \"#utility.yul\":7532:7535   */\n      dup3\n        /* \"#utility.yul\":7527:7530   */\n      dup6\n        /* \"#utility.yul\":7503:7544   */\n      tag_142\n      jump\t// in\n    tag_238:\n        /* \"#utility.yul\":7222:7550   */\n      pop\n        /* \"#utility.yul\":7138:7550   */\n      swap4\n      swap3\n      pop\n      pop\n      pop\n      jump\t// out\n        /* \"#utility.yul\":7570:7910   */\n    tag_144:\n        /* \"#utility.yul\":7626:7631   */\n      0x00\n        /* \"#utility.yul\":7675:7678   */\n      dup3\n        /* \"#utility.yul\":7668:7672   */\n      0x1f\n        /* \"#utility.yul\":7660:7666   */\n      dup4\n        /* \"#utility.yul\":7656:7673   */\n      add\n        /* \"#utility.yul\":7652:7679   */\n      slt\n        /* \"#utility.yul\":7642:7764   */\n      tag_240\n      jumpi\n        /* \"#utility.yul\":7683:7762   */\n      tag_241\n      tag_136\n      jump\t// in\n    tag_241:\n        /* \"#utility.yul\":7642:7764   */\n    tag_240:\n        /* \"#utility.yul\":7800:7806   */\n      dup2\n        /* \"#utility.yul\":7787:7807   */\n      calldataload\n        /* \"#utility.yul\":7825:7904   */\n      tag_242\n        /* \"#utility.yul\":7900:7903   */\n      dup5\n        /* \"#utility.yul\":7892:7898   */\n      dup3\n        /* \"#utility.yul\":7885:7889   */\n      0x20\n        /* \"#utility.yul\":7877:7883   */\n      dup7\n        /* \"#utility.yul\":7873:7890   */\n      add\n        /* \"#utility.yul\":7825:7904   */\n      tag_143\n      jump\t// in\n    tag_242:\n        /* \"#utility.yul\":7816:7904   */\n      swap2\n      pop\n        /* \"#utility.yul\":7632:7910   */\n      pop\n        /* \"#utility.yul\":7570:7910   */\n      swap3\n      swap2\n      pop\n      pop\n      jump\t// out\n        /* \"#utility.yul\":7916:8054   */\n    tag_145:\n        /* \"#utility.yul\":7997:8029   */\n      tag_244\n        /* \"#utility.yul\":8023:8028   */\n      dup2\n        /* \"#utility.yul\":7997:8029   */\n      tag_129\n      jump\t// in\n    tag_244:\n        /* \"#utility.yul\":7990:7995   */\n      dup2\n        /* \"#utility.yul\":7987:8030   */\n      eq\n        /* \"#utility.yul\":7977:8048   */\n      tag_245\n      jumpi\n        /* \"#utility.yul\":8044:8045   */\n      0x00\n        /* \"#utility.yul\":8041:8042   */\n      dup1\n        /* \"#utility.yul\":8034:8046   */\n      revert\n        /* \"#utility.yul\":7977:8048   */\n    tag_245:\n        /* \"#utility.yul\":7916:8054   */\n      pop\n      jump\t// out\n        /* \"#utility.yul\":8060:8215   */\n    tag_146:\n        /* \"#utility.yul\":8114:8119   */\n      0x00\n        /* \"#utility.yul\":8152:8158   */\n      dup2\n        /* \"#utility.yul\":8139:8159   */\n      calldataload\n        /* \"#utility.yul\":8130:8159   */\n      swap1\n      pop\n        /* \"#utility.yul\":8168:8209   */\n      tag_247\n        /* \"#utility.yul\":8203:8208   */\n      dup2\n        /* \"#utility.yul\":8168:8209   */\n      tag_145\n      jump\t// in\n    tag_247:\n        /* \"#utility.yul\":8060:8215   */\n      swap3\n      swap2\n      pop\n      pop\n      jump\t// out\n        /* \"#utility.yul\":8221:9036   */\n    tag_52:\n        /* \"#utility.yul\":8316:8322   */\n      0x00\n        /* \"#utility.yul\":8324:8330   */\n      dup1\n        /* \"#utility.yul\":8332:8338   */\n      0x00\n        /* \"#utility.yul\":8381:8383   */\n      0x60\n        /* \"#utility.yul\":8369:8378   */\n      dup5\n        /* \"#utility.yul\":8360:8367   */\n      dup7\n        /* \"#utility.yul\":8356:8379   */\n      sub\n        /* \"#utility.yul\":8352:8384   */\n      slt\n        /* \"#utility.yul\":8349:8468   */\n      iszero\n      tag_249\n      jumpi\n        /* \"#utility.yul\":8387:8466   */\n      tag_250\n      tag_116\n      jump\t// in\n    tag_250:\n        /* \"#utility.yul\":8349:8468   */\n    tag_249:\n        /* \"#utility.yul\":8535:8536   */\n      0x00\n        /* \"#utility.yul\":8524:8533   */\n      dup5\n        /* \"#utility.yul\":8520:8537   */\n      add\n        /* \"#utility.yul\":8507:8538   */\n      calldataload\n        /* \"#utility.yul\":8565:8583   */\n      0xffffffffffffffff\n        /* \"#utility.yul\":8557:8563   */\n      dup2\n        /* \"#utility.yul\":8554:8584   */\n      gt\n        /* \"#utility.yul\":8551:8668   */\n      iszero\n      tag_251\n      jumpi\n        /* \"#utility.yul\":8587:8666   */\n      tag_252\n      tag_117\n      jump\t// in\n    tag_252:\n        /* \"#utility.yul\":8551:8668   */\n    tag_251:\n        /* \"#utility.yul\":8692:8755   */\n      tag_253\n        /* \"#utility.yul\":8747:8754   */\n      dup7\n        /* \"#utility.yul\":8738:8744   */\n      dup3\n        /* \"#utility.yul\":8727:8736   */\n      dup8\n        /* \"#utility.yul\":8723:8745   */\n      add\n        /* \"#utility.yul\":8692:8755   */\n      tag_144\n      jump\t// in\n    tag_253:\n        /* \"#utility.yul\":8682:8755   */\n      swap4\n      pop\n        /* \"#utility.yul\":8478:8765   */\n      pop\n        /* \"#utility.yul\":8804:8806   */\n      0x20\n        /* \"#utility.yul\":8830:8883   */\n      tag_254\n        /* \"#utility.yul\":8875:8882   */\n      dup7\n        /* \"#utility.yul\":8866:8872   */\n      dup3\n        /* \"#utility.yul\":8855:8864   */\n      dup8\n        /* \"#utility.yul\":8851:8873   */\n      add\n        /* \"#utility.yul\":8830:8883   */\n      tag_120\n      jump\t// in\n    tag_254:\n        /* \"#utility.yul\":8820:8883   */\n      swap3\n      pop\n        /* \"#utility.yul\":8775:8893   */\n      pop\n        /* \"#utility.yul\":8932:8934   */\n      0x40\n        /* \"#utility.yul\":8958:9019   */\n      tag_255\n        /* \"#utility.yul\":9011:9018   */\n      dup7\n        /* \"#utility.yul\":9002:9008   */\n      dup3\n        /* \"#utility.yul\":8991:9000   */\n      dup8\n        /* \"#utility.yul\":8987:9009   */\n      add\n        /* \"#utility.yul\":8958:9019   */\n      tag_146\n      jump\t// in\n    tag_255:\n        /* \"#utility.yul\":8948:9019   */\n      swap2\n      pop\n        /* \"#utility.yul\":8903:9029   */\n      pop\n        /* \"#utility.yul\":8221:9036   */\n      swap3\n      pop\n      swap3\n      pop\n      swap3\n      jump\t// out\n        /* \"#utility.yul\":9042:9222   */\n    tag_69:\n        /* \"#utility.yul\":9090:9167   */\n      0x4e487b7100000000000000000000000000000000000000000000000000000000\n        /* \"#utility.yul\":9087:9088   */\n      0x00\n        /* \"#utility.yul\":9080:9168   */\n      mstore\n        /* \"#utility.yul\":9187:9191   */\n      0x32\n        /* \"#utility.yul\":9184:9185   */\n      0x04\n        /* \"#utility.yul\":9177:9192   */\n      mstore\n        /* \"#utility.yul\":9211:9215   */\n      0x24\n        /* \"#utility.yul\":9208:9209   */\n      0x00\n        /* \"#utility.yul\":9201:9216   */\n      revert\n        /* \"#utility.yul\":9228:9408   */\n    tag_147:\n        /* \"#utility.yul\":9276:9353   */\n      0x4e487b7100000000000000000000000000000000000000000000000000000000\n        /* \"#utility.yul\":9273:9274   */\n      0x00\n        /* \"#utility.yul\":9266:9354   */\n      mstore\n        /* \"#utility.yul\":9373:9377   */\n      0x12\n        /* \"#utility.yul\":9370:9371   */\n      0x04\n        /* \"#utility.yul\":9363:9378   */\n      mstore\n        /* \"#utility.yul\":9397:9401   */\n      0x24\n        /* \"#utility.yul\":9394:9395   */\n      0x00\n        /* \"#utility.yul\":9387:9402   */\n      revert\n        /* \"#utility.yul\":9414:9594   */\n    tag_148:\n        /* \"#utility.yul\":9462:9539   */\n      0x4e487b7100000000000000000000000000000000000000000000000000000000\n        /* \"#utility.yul\":9459:9460   */\n      0x00\n        /* \"#utility.yul\":9452:9540   */\n      mstore\n        /* \"#utility.yul\":9559:9563   */\n      0x11\n        /* \"#utility.yul\":9556:9557   */\n      0x04\n        /* \"#utility.yul\":9549:9564   */\n      mstore\n        /* \"#utility.yul\":9583:9587   */\n      0x24\n        /* \"#utility.yul\":9580:9581   */\n      0x00\n        /* \"#utility.yul\":9573:9588   */\n      revert\n        /* \"#utility.yul\":9600:9785   */\n    tag_72:\n        /* \"#utility.yul\":9640:9641   */\n      0x00\n        /* \"#utility.yul\":9657:9677   */\n      tag_260\n        /* \"#utility.yul\":9675:9676   */\n      dup3\n        /* \"#utility.yul\":9657:9677   */\n      tag_118\n      jump\t// in\n    tag_260:\n        /* \"#utility.yul\":9652:9677   */\n      swap2\n      pop\n        /* \"#utility.yul\":9691:9711   */\n      tag_261\n        /* \"#utility.yul\":9709:9710   */\n      dup4\n        /* \"#utility.yul\":9691:9711   */\n      tag_118\n      jump\t// in\n    tag_261:\n        /* \"#utility.yul\":9686:9711   */\n      swap3\n      pop\n        /* \"#utility.yul\":9730:9731   */\n      dup3\n        /* \"#utility.yul\":9720:9755   */\n      tag_262\n      jumpi\n        /* \"#utility.yul\":9735:9753   */\n      tag_263\n      tag_147\n      jump\t// in\n    tag_263:\n        /* \"#utility.yul\":9720:9755   */\n    tag_262:\n        /* \"#utility.yul\":9777:9778   */\n      dup3\n        /* \"#utility.yul\":9774:9775   */\n      dup3\n        /* \"#utility.yul\":9770:9779   */\n      div\n        /* \"#utility.yul\":9765:9779   */\n      swap1\n      pop\n        /* \"#utility.yul\":9600:9785   */\n      swap3\n      swap2\n      pop\n      pop\n      jump\t// out\n        /* \"#utility.yul\":9791:9971   */\n    tag_149:\n        /* \"#utility.yul\":9839:9916   */\n      0x4e487b7100000000000000000000000000000000000000000000000000000000\n        /* \"#utility.yul\":9836:9837   */\n      0x00\n        /* \"#utility.yul\":9829:9917   */\n      mstore\n        /* \"#utility.yul\":9936:9940   */\n      0x22\n        /* \"#utility.yul\":9933:9934   */\n      0x04\n        /* \"#utility.yul\":9926:9941   */\n      mstore\n        /* \"#utility.yul\":9960:9964   */\n      0x24\n        /* \"#utility.yul\":9957:9958   */\n      0x00\n        /* \"#utility.yul\":9950:9965   */\n      revert\n        /* \"#utility.yul\":9977:10297   */\n    tag_82:\n        /* \"#utility.yul\":10021:10027   */\n      0x00\n        /* \"#utility.yul\":10058:10059   */\n      0x02\n        /* \"#utility.yul\":10052:10056   */\n      dup3\n        /* \"#utility.yul\":10048:10060   */\n      div\n        /* \"#utility.yul\":10038:10060   */\n      swap1\n      pop\n        /* \"#utility.yul\":10105:10106   */\n      0x01\n        /* \"#utility.yul\":10099:10103   */\n      dup3\n        /* \"#utility.yul\":10095:10107   */\n      and\n        /* \"#utility.yul\":10126:10144   */\n      dup1\n        /* \"#utility.yul\":10116:10197   */\n      tag_266\n      jumpi\n        /* \"#utility.yul\":10182:10186   */\n      0x7f\n        /* \"#utility.yul\":10174:10180   */\n      dup3\n        /* \"#utility.yul\":10170:10187   */\n      and\n        /* \"#utility.yul\":10160:10187   */\n      swap2\n      pop\n        /* \"#utility.yul\":10116:10197   */\n    tag_266:\n        /* \"#utility.yul\":10244:10246   */\n      0x20\n        /* \"#utility.yul\":10236:10242   */\n      dup3\n        /* \"#utility.yul\":10233:10247   */\n      lt\n        /* \"#utility.yul\":10213:10231   */\n      dup2\n        /* \"#utility.yul\":10210:10248   */\n      sub\n        /* \"#utility.yul\":10207:10291   */\n      tag_267\n      jumpi\n        /* \"#utility.yul\":10263:10281   */\n      tag_268\n      tag_149\n      jump\t// in\n    tag_268:\n        /* \"#utility.yul\":10207:10291   */\n    tag_267:\n        /* \"#utility.yul\":10028:10297   */\n      pop\n        /* \"#utility.yul\":9977:10297   */\n      swap2\n      swap1\n      pop\n      jump\t// out\n        /* \"#utility.yul\":10303:10536   */\n    tag_94:\n        /* \"#utility.yul\":10342:10345   */\n      0x00\n        /* \"#utility.yul\":10365:10389   */\n      tag_270\n        /* \"#utility.yul\":10383:10388   */\n      dup3\n        /* \"#utility.yul\":10365:10389   */\n      tag_118\n      jump\t// in\n    tag_270:\n        /* \"#utility.yul\":10356:10389   */\n      swap2\n      pop\n        /* \"#utility.yul\":10411:10477   */\n      0xffffffffffffffffffffffffffffffffffffffffffffffffffffffffffffffff\n        /* \"#utility.yul\":10404:10409   */\n      dup3\n        /* \"#utility.yul\":10401:10478   */\n      sub\n        /* \"#utility.yul\":10398:10501   */\n      tag_271\n      jumpi\n        /* \"#utility.yul\":10481:10499   */\n      tag_272\n      tag_148\n      jump\t// in\n    tag_272:\n        /* \"#utility.yul\":10398:10501   */\n    tag_271:\n        /* \"#utility.yul\":10528:10529   */\n      0x01\n        /* \"#utility.yul\":10521:10526   */\n      dup3\n        /* \"#utility.yul\":10517:10530   */\n      add\n        /* \"#utility.yul\":10510:10530   */\n      swap1\n      pop\n        /* \"#utility.yul\":10303:10536   */\n      swap2\n      swap1\n      pop\n      jump\t// out\n\n    auxdata: 0xa264697066735822122070fb11719f0a71b75845fb82499972098c0471b766903d08eff3d18167ddf7e464736f6c634300080d0033\n}\n","bytecode":{"linkReferences":{},"object":"608060405260006004553480156200001657600080fd5b50604051620010c8380380620010c883398181016040528101906200003c919062000130565b806000806101000a81548173ffffffffffffffffffffffffffffffffffffffff021916908373ffffffffffffffffffffffffffffffffffffffff16021790555081600181905550505062000177565b600080fd5b6000819050919050565b620000a58162000090565b8114620000b157600080fd5b50565b600081519050620000c5816200009a565b92915050565b600073ffffffffffffffffffffffffffffffffffffffff82169050919050565b6000620000f882620000cb565b9050919050565b6200010a81620000eb565b81146200011657600080fd5b50565b6000815190506200012a81620000ff565b92915050565b600080604083850312156200014a57620001496200008b565b5b60006200015a85828601620000b4565b92505060206200016d8582860162000119565b9150509250929050565b610f4180620001876000396000f3fe60806040526004361061009c5760003560e01c806381d12c581161006457806381d12c581461017f57806382fde093146101c05780638a9cfd55146101eb578063937e09b114610207578063d7bb99ba14610232578063d7d1bbdb1461023c5761009c565b806303441006146100a15780630a144391146100bd5780633fad1834146100fa5780634051ddac14610125578063481c6a7514610154575b600080fd5b6100bb60048036038101906100b6919061092c565b610265565b005b3480156100c957600080fd5b506100e460048036038101906100df91906109b7565b6103ad565b6040516100f191906109ff565b60405180910390f35b34801561010657600080fd5b5061010f6103cd565b60405161011c9190610a29565b60405180910390f35b34801561013157600080fd5b5061013a6103da565b60405161014b959493929190610a53565b60405180910390f35b34801561016057600080fd5b50610169610421565b6040516101769190610ac7565b60405180910390f35b34801561018b57600080fd5b506101a660048036038101906101a1919061092c565b610445565b6040516101b7959493929190610b7b565b60405180910390f35b3480156101cc57600080fd5b506101d5610540565b6040516101e29190610a29565b60405180910390f35b61020560048036038101906102009190610d36565b610546565b005b34801561021357600080fd5b5061021c61066c565b6040516102299190610a29565b60405180910390f35b61023a610672565b005b34801561024857600080fd5b50610263600480360381019061025e919061092c565b6106f2565b005b60008054906101000a900473ffffffffffffffffffffffffffffffffffffffff1673ffffffffffffffffffffffffffffffffffffffff163373ffffffffffffffffffffffffffffffffffffffff16146102bd57600080fd5b6000600382815481106102d3576102d2610da5565b5b9060005260206000209060050201905060026005546102f29190610e32565b81600301541161030157600080fd5b8060020160149054906101000a900460ff161561031d57600080fd5b8060020160009054906101000a900473ffffffffffffffffffffffffffffffffffffffff1673ffffffffffffffffffffffffffffffffffffffff166108fc82600101549081150290604051600060405180830381858888f1935050505015801561038b573d6000803e3d6000fd5b5060018160020160146101000a81548160ff0219169083151502179055505050565b60026020528060005260406000206000915054906101000a900460ff1681565b6000600380549050905090565b60008060008060006001544760038054905060055460008054906101000a900473ffffffffffffffffffffffffffffffffffffffff16945094509450945094509091929394565b60008054906101000a900473ffffffffffffffffffffffffffffffffffffffff1681565b6003818154811061045557600080fd5b906000526020600020906005020160009150905080600001805461047890610e92565b80601f01602080910402602001604051908101604052809291908181526020018280546104a490610e92565b80156104f15780601f106104c6576101008083540402835291602001916104f1565b820191906000526020600020905b8154815290600101906020018083116104d457829003601f168201915b5050505050908060010154908060020160009054906101000a900473ffffffffffffffffffffffffffffffffffffffff16908060020160149054906101000a900460ff16908060030154905085565b60055481565b60008054906101000a900473ffffffffffffffffffffffffffffffffffffffff1673ffffffffffffffffffffffffffffffffffffffff163373ffffffffffffffffffffffffffffffffffffffff161461059e57600080fd5b600060036001816001815401808255809150500390600052602060002090600502019050838160000190805190602001906105da92919061083f565b50828160010181905550818160020160006101000a81548173ffffffffffffffffffffffffffffffffffffffff021916908373ffffffffffffffffffffffffffffffffffffffff16021790555060008160020160146101000a81548160ff021916908315150217905550600081600301819055506004600081548092919061066190610ec3565b919050555050505050565b60015481565b600154341161068057600080fd5b6001600260003373ffffffffffffffffffffffffffffffffffffffff1673ffffffffffffffffffffffffffffffffffffffff16815260200190815260200160002060006101000a81548160ff021916908315150217905550600560008154809291906106eb90610ec3565b9190505550565b60006003828154811061070857610707610da5565b5b90600052602060002090600502019050600260003373ffffffffffffffffffffffffffffffffffffffff1673ffffffffffffffffffffffffffffffffffffffff16815260200190815260200160002060009054906101000a900460ff1661076e57600080fd5b8060040160003373ffffffffffffffffffffffffffffffffffffffff1673ffffffffffffffffffffffffffffffffffffffff16815260200190815260200160002060009054906101000a900460ff16156107c757600080fd5b60018160040160003373ffffffffffffffffffffffffffffffffffffffff1673ffffffffffffffffffffffffffffffffffffffff16815260200190815260200160002060006101000a81548160ff02191690831515021790555080600301600081548092919061083690610ec3565b91905055505050565b82805461084b90610e92565b90600052602060002090601f01602090048101928261086d57600085556108b4565b82601f1061088657805160ff19168380011785556108b4565b828001600101855582156108b4579182015b828111156108b3578251825591602001919060010190610898565b5b5090506108c191906108c5565b5090565b5b808211156108de5760008160009055506001016108c6565b5090565b6000604051905090565b600080fd5b600080fd5b6000819050919050565b610909816108f6565b811461091457600080fd5b50565b60008135905061092681610900565b92915050565b600060208284031215610942576109416108ec565b5b600061095084828501610917565b91505092915050565b600073ffffffffffffffffffffffffffffffffffffffff82169050919050565b600061098482610959565b9050919050565b61099481610979565b811461099f57600080fd5b50565b6000813590506109b18161098b565b92915050565b6000602082840312156109cd576109cc6108ec565b5b60006109db848285016109a2565b91505092915050565b60008115159050919050565b6109f9816109e4565b82525050565b6000602082019050610a1460008301846109f0565b92915050565b610a23816108f6565b82525050565b6000602082019050610a3e6000830184610a1a565b92915050565b610a4d81610979565b82525050565b600060a082019050610a686000830188610a1a565b610a756020830187610a1a565b610a826040830186610a1a565b610a8f6060830185610a1a565b610a9c6080830184610a44565b9695505050505050565b6000610ab182610959565b9050919050565b610ac181610aa6565b82525050565b6000602082019050610adc6000830184610ab8565b92915050565b600081519050919050565b600082825260208201905092915050565b60005b83811015610b1c578082015181840152602081019050610b01565b83811115610b2b576000848401525b50505050565b6000601f19601f8301169050919050565b6000610b4d82610ae2565b610b578185610aed565b9350610b67818560208601610afe565b610b7081610b31565b840191505092915050565b600060a0820190508181036000830152610b958188610b42565b9050610ba46020830187610a1a565b610bb16040830186610ab8565b610bbe60608301856109f0565b610bcb6080830184610a1a565b9695505050505050565b600080fd5b600080fd5b7f4e487b7100000000000000000000000000000000000000000000000000000000600052604160045260246000fd5b610c1782610b31565b810181811067ffffffffffffffff82111715610c3657610c35610bdf565b5b80604052505050565b6000610c496108e2565b9050610c558282610c0e565b919050565b600067ffffffffffffffff821115610c7557610c74610bdf565b5b610c7e82610b31565b9050602081019050919050565b82818337600083830152505050565b6000610cad610ca884610c5a565b610c3f565b905082815260208101848484011115610cc957610cc8610bda565b5b610cd4848285610c8b565b509392505050565b600082601f830112610cf157610cf0610bd5565b5b8135610d01848260208601610c9a565b91505092915050565b610d1381610aa6565b8114610d1e57600080fd5b50565b600081359050610d3081610d0a565b92915050565b600080600060608486031215610d4f57610d4e6108ec565b5b600084013567ffffffffffffffff811115610d6d57610d6c6108f1565b5b610d7986828701610cdc565b9350506020610d8a86828701610917565b9250506040610d9b86828701610d21565b9150509250925092565b7f4e487b7100000000000000000000000000000000000000000000000000000000600052603260045260246000fd5b7f4e487b7100000000000000000000000000000000000000000000000000000000600052601260045260246000fd5b7f4e487b7100000000000000000000000000000000000000000000000000000000600052601160045260246000fd5b6000610e3d826108f6565b9150610e48836108f6565b925082610e5857610e57610dd4565b5b828204905092915050565b7f4e487b7100000000000000000000000000000000000000000000000000000000600052602260045260246000fd5b60006002820490506001821680610eaa57607f821691505b602082108103610ebd57610ebc610e63565b5b50919050565b6000610ece826108f6565b91507fffffffffffffffffffffffffffffffffffffffffffffffffffffffffffffffff8203610f0057610eff610e03565b5b60018201905091905056fea264697066735822122070fb11719f0a71b75845fb82499972098c0471b766903d08eff3d18167ddf7e464736f6c634300080d0033","opcodes":"PUSH1 0x80 PUSH1 0x40 MSTORE PUSH1 0x0 PUSH1 0x4 SSTORE CALLVALUE DUP1 ISZERO PUSH3 0x16 JUMPI PUSH1 0x0 DUP1 REVERT JUMPDEST POP PUSH1 0x40 MLOAD PUSH3 0x10C8 CODESIZE SUB DUP1 PUSH3 0x10C8 DUP4 CODECOPY DUP2 DUP2 ADD PUSH1 0x40 MSTORE DUP2 ADD SWAP1 PUSH3 0x3C SWAP2 SWAP1 PUSH3 0x130 JUMP JUMPDEST DUP1 PUSH1 0x0 DUP1 PUSH2 0x100 EXP DUP2 SLOAD DUP2 PUSH20 0xFFFFFFFFFFFFFFFFFFFFFFFFFFFFFFFFFFFFFFFF MUL NOT AND SWAP1 DUP4 PUSH20 0xFFFFFFFFFFFFFFFFFFFFFFFFFFFFFFFFFFFFFFFF AND MUL OR SWAP1 SSTORE POP DUP2 PUSH1 0x1 DUP2 SWAP1 SSTORE POP POP POP PUSH3 0x177 JUMP JUMPDEST PUSH1 0x0 DUP1 REVERT JUMPDEST PUSH1 0x0 DUP2 SWAP1 POP SWAP2 SWAP1 POP JUMP JUMPDEST PUSH3 0xA5 DUP2 PUSH3 0x90 JUMP JUMPDEST DUP2 EQ PUSH3 0xB1 JUMPI PUSH1 0x0 DUP1 REVERT JUMPDEST POP JUMP JUMPDEST PUSH1 0x0 DUP2 MLOAD SWAP1 POP PUSH3 0xC5 DUP2 PUSH3 0x9A JUMP JUMPDEST SWAP3 SWAP2 POP POP JUMP JUMPDEST PUSH1 0x0 PUSH20 0xFFFFFFFFFFFFFFFFFFFFFFFFFFFFFFFFFFFFFFFF DUP3 AND SWAP1 POP SWAP2 SWAP1 POP JUMP JUMPDEST PUSH1 0x0 PUSH3 0xF8 DUP3 PUSH3 0xCB JUMP JUMPDEST SWAP1 POP SWAP2 SWAP1 POP JUMP JUMPDEST PUSH3 0x10A DUP2 PUSH3 0xEB JUMP JUMPDEST DUP2 EQ PUSH3 0x116 JUMPI PUSH1 0x0 DUP1 REVERT JUMPDEST POP JUMP JUMPDEST PUSH1 0x0 DUP2 MLOAD SWAP1 POP PUSH3 0x12A DUP2 PUSH3 0xFF JUMP JUMPDEST SWAP3 SWAP2 POP POP JUMP JUMPDEST PUSH1 0x0 DUP1 PUSH1 0x40 DUP4 DUP6 SUB SLT ISZERO PUSH3 0x14A JUMPI PUSH3 0x149 PUSH3 0x8B JUMP JUMPDEST JUMPDEST PUSH1 0x0 PUSH3 0x15A DUP6 DUP3 DUP7 ADD PUSH3 0xB4 JUMP JUMPDEST SWAP3 POP POP PUSH1 0x20 PUSH3 0x16D DUP6 DUP3 DUP7 ADD PUSH3 0x119 JUMP JUMPDEST SWAP2 POP POP SWAP3 POP SWAP3 SWAP1 POP JUMP JUMPDEST PUSH2 0xF41 DUP1 PUSH3 0x187 PUSH1 0x0 CODECOPY PUSH1 0x0 RETURN INVALID PUSH1 0x80 PUSH1 0x40 MSTORE PUSH1 0x4 CALLDATASIZE LT PUSH2 0x9C JUMPI PUSH1 0x0 CALLDATALOAD PUSH1 0xE0 SHR DUP1 PUSH4 0x81D12C58 GT PUSH2 0x64 JUMPI DUP1 PUSH4 0x81D12C58 EQ PUSH2 0x17F JUMPI DUP1 PUSH4 0x82FDE093 EQ PUSH2 0x1C0 JUMPI DUP1 PUSH4 0x8A9CFD55 EQ PUSH2 0x1EB JUMPI DUP1 PUSH4 0x937E09B1 EQ PUSH2 0x207 JUMPI DUP1 PUSH4 0xD7BB99BA EQ PUSH2 0x232 JUMPI DUP1 PUSH4 0xD7D1BBDB EQ PUSH2 0x23C JUMPI PUSH2 0x9C JUMP JUMPDEST DUP1 PUSH4 0x3441006 EQ PUSH2 0xA1 JUMPI DUP1 PUSH4 0xA144391 EQ PUSH2 0xBD JUMPI DUP1 PUSH4 0x3FAD1834 EQ PUSH2 0xFA JUMPI DUP1 PUSH4 0x4051DDAC EQ PUSH2 0x125 JUMPI DUP1 PUSH4 0x481C6A75 EQ PUSH2 0x154 JUMPI JUMPDEST PUSH1 0x0 DUP1 REVERT JUMPDEST PUSH2 0xBB PUSH1 0x4 DUP1 CALLDATASIZE SUB DUP2 ADD SWAP1 PUSH2 0xB6 SWAP2 SWAP1 PUSH2 0x92C JUMP JUMPDEST PUSH2 0x265 JUMP JUMPDEST STOP JUMPDEST CALLVALUE DUP1 ISZERO PUSH2 0xC9 JUMPI PUSH1 0x0 DUP1 REVERT JUMPDEST POP PUSH2 0xE4 PUSH1 0x4 DUP1 CALLDATASIZE SUB DUP2 ADD SWAP1 PUSH2 0xDF SWAP2 SWAP1 PUSH2 0x9B7 JUMP JUMPDEST PUSH2 0x3AD JUMP JUMPDEST PUSH1 0x40 MLOAD PUSH2 0xF1 SWAP2 SWAP1 PUSH2 0x9FF JUMP JUMPDEST PUSH1 0x40 MLOAD DUP1 SWAP2 SUB SWAP1 RETURN JUMPDEST CALLVALUE DUP1 ISZERO PUSH2 0x106 JUMPI PUSH1 0x0 DUP1 REVERT JUMPDEST POP PUSH2 0x10F PUSH2 0x3CD JUMP JUMPDEST PUSH1 0x40 MLOAD PUSH2 0x11C SWAP2 SWAP1 PUSH2 0xA29 JUMP JUMPDEST PUSH1 0x40 MLOAD DUP1 SWAP2 SUB SWAP1 RETURN JUMPDEST CALLVALUE DUP1 ISZERO PUSH2 0x131 JUMPI PUSH1 0x0 DUP1 REVERT JUMPDEST POP PUSH2 0x13A PUSH2 0x3DA JUMP JUMPDEST PUSH1 0x40 MLOAD PUSH2 0x14B SWAP6 SWAP5 SWAP4 SWAP3 SWAP2 SWAP1 PUSH2 0xA53 JUMP JUMPDEST PUSH1 0x40 MLOAD DUP1 SWAP2 SUB SWAP1 RETURN JUMPDEST CALLVALUE DUP1 ISZERO PUSH2 0x160 JUMPI PUSH1 0x0 DUP1 REVERT JUMPDEST POP PUSH2 0x169 PUSH2 0x421 JUMP JUMPDEST PUSH1 0x40 MLOAD PUSH2 0x176 SWAP2 SWAP1 PUSH2 0xAC7 JUMP JUMPDEST PUSH1 0x40 MLOAD DUP1 SWAP2 SUB SWAP1 RETURN JUMPDEST CALLVALUE DUP1 ISZERO PUSH2 0x18B JUMPI PUSH1 0x0 DUP1 REVERT JUMPDEST POP PUSH2 0x1A6 PUSH1 0x4 DUP1 CALLDATASIZE SUB DUP2 ADD SWAP1 PUSH2 0x1A1 SWAP2 SWAP1 PUSH2 0x92C JUMP JUMPDEST PUSH2 0x445 JUMP JUMPDEST PUSH1 0x40 MLOAD PUSH2 0x1B7 SWAP6 SWAP5 SWAP4 SWAP3 SWAP2 SWAP1 PUSH2 0xB7B JUMP JUMPDEST PUSH1 0x40 MLOAD DUP1 SWAP2 SUB SWAP1 RETURN JUMPDEST CALLVALUE DUP1 ISZERO PUSH2 0x1CC JUMPI PUSH1 0x0 DUP1 REVERT JUMPDEST POP PUSH2 0x1D5 PUSH2 0x540 JUMP JUMPDEST PUSH1 0x40 MLOAD PUSH2 0x1E2 SWAP2 SWAP1 PUSH2 0xA29 JUMP JUMPDEST PUSH1 0x40 MLOAD DUP1 SWAP2 SUB SWAP1 RETURN JUMPDEST PUSH2 0x205 PUSH1 0x4 DUP1 CALLDATASIZE SUB DUP2 ADD SWAP1 PUSH2 0x200 SWAP2 SWAP1 PUSH2 0xD36 JUMP JUMPDEST PUSH2 0x546 JUMP JUMPDEST STOP JUMPDEST CALLVALUE DUP1 ISZERO PUSH2 0x213 JUMPI PUSH1 0x0 DUP1 REVERT JUMPDEST POP PUSH2 0x21C PUSH2 0x66C JUMP JUMPDEST PUSH1 0x40 MLOAD PUSH2 0x229 SWAP2 SWAP1 PUSH2 0xA29 JUMP JUMPDEST PUSH1 0x40 MLOAD DUP1 SWAP2 SUB SWAP1 RETURN JUMPDEST PUSH2 0x23A PUSH2 0x672 JUMP JUMPDEST STOP JUMPDEST CALLVALUE DUP1 ISZERO PUSH2 0x248 JUMPI PUSH1 0x0 DUP1 REVERT JUMPDEST POP PUSH2 0x263 PUSH1 0x4 DUP1 CALLDATASIZE SUB DUP2 ADD SWAP1 PUSH2 0x25E SWAP2 SWAP1 PUSH2 0x92C JUMP JUMPDEST PUSH2 0x6F2 JUMP JUMPDEST STOP JUMPDEST PUSH1 0x0 DUP1 SLOAD SWAP1 PUSH2 0x100 EXP SWAP1 DIV PUSH20 0xFFFFFFFFFFFFFFFFFFFFFFFFFFFFFFFFFFFFFFFF AND PUSH20 0xFFFFFFFFFFFFFFFFFFFFFFFFFFFFFFFFFFFFFFFF AND CALLER PUSH20 0xFFFFFFFFFFFFFFFFFFFFFFFFFFFFFFFFFFFFFFFF AND EQ PUSH2 0x2BD JUMPI PUSH1 0x0 DUP1 REVERT JUMPDEST PUSH1 0x0 PUSH1 0x3 DUP3 DUP2 SLOAD DUP2 LT PUSH2 0x2D3 JUMPI PUSH2 0x2D2 PUSH2 0xDA5 JUMP JUMPDEST JUMPDEST SWAP1 PUSH1 0x0 MSTORE PUSH1 0x20 PUSH1 0x0 KECCAK256 SWAP1 PUSH1 0x5 MUL ADD SWAP1 POP PUSH1 0x2 PUSH1 0x5 SLOAD PUSH2 0x2F2 SWAP2 SWAP1 PUSH2 0xE32 JUMP JUMPDEST DUP2 PUSH1 0x3 ADD SLOAD GT PUSH2 0x301 JUMPI PUSH1 0x0 DUP1 REVERT JUMPDEST DUP1 PUSH1 0x2 ADD PUSH1 0x14 SWAP1 SLOAD SWAP1 PUSH2 0x100 EXP SWAP1 DIV PUSH1 0xFF AND ISZERO PUSH2 0x31D JUMPI PUSH1 0x0 DUP1 REVERT JUMPDEST DUP1 PUSH1 0x2 ADD PUSH1 0x0 SWAP1 SLOAD SWAP1 PUSH2 0x100 EXP SWAP1 DIV PUSH20 0xFFFFFFFFFFFFFFFFFFFFFFFFFFFFFFFFFFFFFFFF AND PUSH20 0xFFFFFFFFFFFFFFFFFFFFFFFFFFFFFFFFFFFFFFFF AND PUSH2 0x8FC DUP3 PUSH1 0x1 ADD SLOAD SWAP1 DUP2 ISZERO MUL SWAP1 PUSH1 0x40 MLOAD PUSH1 0x0 PUSH1 0x40 MLOAD DUP1 DUP4 SUB DUP2 DUP6 DUP9 DUP9 CALL SWAP4 POP POP POP POP ISZERO DUP1 ISZERO PUSH2 0x38B JUMPI RETURNDATASIZE PUSH1 0x0 DUP1 RETURNDATACOPY RETURNDATASIZE PUSH1 0x0 REVERT JUMPDEST POP PUSH1 0x1 DUP2 PUSH1 0x2 ADD PUSH1 0x14 PUSH2 0x100 EXP DUP2 SLOAD DUP2 PUSH1 0xFF MUL NOT AND SWAP1 DUP4 ISZERO ISZERO MUL OR SWAP1 SSTORE POP POP POP JUMP JUMPDEST PUSH1 0x2 PUSH1 0x20 MSTORE DUP1 PUSH1 0x0 MSTORE PUSH1 0x40 PUSH1 0x0 KECCAK256 PUSH1 0x0 SWAP2 POP SLOAD SWAP1 PUSH2 0x100 EXP SWAP1 DIV PUSH1 0xFF AND DUP2 JUMP JUMPDEST PUSH1 0x0 PUSH1 0x3 DUP1 SLOAD SWAP1 POP SWAP1 POP SWAP1 JUMP JUMPDEST PUSH1 0x0 DUP1 PUSH1 0x0 DUP1 PUSH1 0x0 PUSH1 0x1 SLOAD SELFBALANCE PUSH1 0x3 DUP1 SLOAD SWAP1 POP PUSH1 0x5 SLOAD PUSH1 0x0 DUP1 SLOAD SWAP1 PUSH2 0x100 EXP SWAP1 DIV PUSH20 0xFFFFFFFFFFFFFFFFFFFFFFFFFFFFFFFFFFFFFFFF AND SWAP5 POP SWAP5 POP SWAP5 POP SWAP5 POP SWAP5 POP SWAP1 SWAP2 SWAP3 SWAP4 SWAP5 JUMP JUMPDEST PUSH1 0x0 DUP1 SLOAD SWAP1 PUSH2 0x100 EXP SWAP1 DIV PUSH20 0xFFFFFFFFFFFFFFFFFFFFFFFFFFFFFFFFFFFFFFFF AND DUP2 JUMP JUMPDEST PUSH1 0x3 DUP2 DUP2 SLOAD DUP2 LT PUSH2 0x455 JUMPI PUSH1 0x0 DUP1 REVERT JUMPDEST SWAP1 PUSH1 0x0 MSTORE PUSH1 0x20 PUSH1 0x0 KECCAK256 SWAP1 PUSH1 0x5 MUL ADD PUSH1 0x0 SWAP2 POP SWAP1 POP DUP1 PUSH1 0x0 ADD DUP1 SLOAD PUSH2 0x478 SWAP1 PUSH2 0xE92 JUMP JUMPDEST DUP1 PUSH1 0x1F ADD PUSH1 0x20 DUP1 SWAP2 DIV MUL PUSH1 0x20 ADD PUSH1 0x40 MLOAD SWAP1 DUP2 ADD PUSH1 0x40 MSTORE DUP1 SWAP3 SWAP2 SWAP1 DUP2 DUP2 MSTORE PUSH1 0x20 ADD DUP3 DUP1 SLOAD PUSH2 0x4A4 SWAP1 PUSH2 0xE92 JUMP JUMPDEST DUP1 ISZERO PUSH2 0x4F1 JUMPI DUP1 PUSH1 0x1F LT PUSH2 0x4C6 JUMPI PUSH2 0x100 DUP1 DUP4 SLOAD DIV MUL DUP4 MSTORE SWAP2 PUSH1 0x20 ADD SWAP2 PUSH2 0x4F1 JUMP JUMPDEST DUP3 ADD SWAP2 SWAP1 PUSH1 0x0 MSTORE PUSH1 0x20 PUSH1 0x0 KECCAK256 SWAP1 JUMPDEST DUP2 SLOAD DUP2 MSTORE SWAP1 PUSH1 0x1 ADD SWAP1 PUSH1 0x20 ADD DUP1 DUP4 GT PUSH2 0x4D4 JUMPI DUP3 SWAP1 SUB PUSH1 0x1F AND DUP3 ADD SWAP2 JUMPDEST POP POP POP POP POP SWAP1 DUP1 PUSH1 0x1 ADD SLOAD SWAP1 DUP1 PUSH1 0x2 ADD PUSH1 0x0 SWAP1 SLOAD SWAP1 PUSH2 0x100 EXP SWAP1 DIV PUSH20 0xFFFFFFFFFFFFFFFFFFFFFFFFFFFFFFFFFFFFFFFF AND SWAP1 DUP1 PUSH1 0x2 ADD PUSH1 0x14 SWAP1 SLOAD SWAP1 PUSH2 0x100 EXP SWAP1 DIV PUSH1 0xFF AND SWAP1 DUP1 PUSH1 0x3 ADD SLOAD SWAP1 POP DUP6 JUMP JUMPDEST PUSH1 0x5 SLOAD DUP2 JUMP JUMPDEST PUSH1 0x0 DUP1 SLOAD SWAP1 PUSH2 0x100 EXP SWAP1 DIV PUSH20 0xFFFFFFFFFFFFFFFFFFFFFFFFFFFFFFFFFFFFFFFF AND PUSH20 0xFFFFFFFFFFFFFFFFFFFFFFFFFFFFFFFFFFFFFFFF AND CALLER PUSH20 0xFFFFFFFFFFFFFFFFFFFFFFFFFFFFFFFFFFFFFFFF AND EQ PUSH2 0x59E JUMPI PUSH1 0x0 DUP1 REVERT JUMPDEST PUSH1 0x0 PUSH1 0x3 PUSH1 0x1 DUP2 PUSH1 0x1 DUP2 SLOAD ADD DUP1 DUP3 SSTORE DUP1 SWAP2 POP POP SUB SWAP1 PUSH1 0x0 MSTORE PUSH1 0x20 PUSH1 0x0 KECCAK256 SWAP1 PUSH1 0x5 MUL ADD SWAP1 POP DUP4 DUP2 PUSH1 0x0 ADD SWAP1 DUP1 MLOAD SWAP1 PUSH1 0x20 ADD SWAP1 PUSH2 0x5DA SWAP3 SWAP2 SWAP1 PUSH2 0x83F JUMP JUMPDEST POP DUP3 DUP2 PUSH1 0x1 ADD DUP2 SWAP1 SSTORE POP DUP2 DUP2 PUSH1 0x2 ADD PUSH1 0x0 PUSH2 0x100 EXP DUP2 SLOAD DUP2 PUSH20 0xFFFFFFFFFFFFFFFFFFFFFFFFFFFFFFFFFFFFFFFF MUL NOT AND SWAP1 DUP4 PUSH20 0xFFFFFFFFFFFFFFFFFFFFFFFFFFFFFFFFFFFFFFFF AND MUL OR SWAP1 SSTORE POP PUSH1 0x0 DUP2 PUSH1 0x2 ADD PUSH1 0x14 PUSH2 0x100 EXP DUP2 SLOAD DUP2 PUSH1 0xFF MUL NOT AND SWAP1 DUP4 ISZERO ISZERO MUL OR SWAP1 SSTORE POP PUSH1 0x0 DUP2 PUSH1 0x3 ADD DUP2 SWAP1 SSTORE POP PUSH1 0x4 PUSH1 0x0 DUP2 SLOAD DUP1 SWAP3 SWAP2 SWAP1 PUSH2 0x661 SWAP1 PUSH2 0xEC3 JUMP JUMPDEST SWAP2 SWAP1 POP SSTORE POP POP POP POP POP JUMP JUMPDEST PUSH1 0x1 SLOAD DUP2 JUMP JUMPDEST PUSH1 0x1 SLOAD CALLVALUE GT PUSH2 0x680 JUMPI PUSH1 0x0 DUP1 REVERT JUMPDEST PUSH1 0x1 PUSH1 0x2 PUSH1 0x0 CALLER PUSH20 0xFFFFFFFFFFFFFFFFFFFFFFFFFFFFFFFFFFFFFFFF AND PUSH20 0xFFFFFFFFFFFFFFFFFFFFFFFFFFFFFFFFFFFFFFFF AND DUP2 MSTORE PUSH1 0x20 ADD SWAP1 DUP2 MSTORE PUSH1 0x20 ADD PUSH1 0x0 KECCAK256 PUSH1 0x0 PUSH2 0x100 EXP DUP2 SLOAD DUP2 PUSH1 0xFF MUL NOT AND SWAP1 DUP4 ISZERO ISZERO MUL OR SWAP1 SSTORE POP PUSH1 0x5 PUSH1 0x0 DUP2 SLOAD DUP1 SWAP3 SWAP2 SWAP1 PUSH2 0x6EB SWAP1 PUSH2 0xEC3 JUMP JUMPDEST SWAP2 SWAP1 POP SSTORE POP JUMP JUMPDEST PUSH1 0x0 PUSH1 0x3 DUP3 DUP2 SLOAD DUP2 LT PUSH2 0x708 JUMPI PUSH2 0x707 PUSH2 0xDA5 JUMP JUMPDEST JUMPDEST SWAP1 PUSH1 0x0 MSTORE PUSH1 0x20 PUSH1 0x0 KECCAK256 SWAP1 PUSH1 0x5 MUL ADD SWAP1 POP PUSH1 0x2 PUSH1 0x0 CALLER PUSH20 0xFFFFFFFFFFFFFFFFFFFFFFFFFFFFFFFFFFFFFFFF AND PUSH20 0xFFFFFFFFFFFFFFFFFFFFFFFFFFFFFFFFFFFFFFFF AND DUP2 MSTORE PUSH1 0x20 ADD SWAP1 DUP2 MSTORE PUSH1 0x20 ADD PUSH1 0x0 KECCAK256 PUSH1 0x0 SWAP1 SLOAD SWAP1 PUSH2 0x100 EXP SWAP1 DIV PUSH1 0xFF AND PUSH2 0x76E JUMPI PUSH1 0x0 DUP1 REVERT JUMPDEST DUP1 PUSH1 0x4 ADD PUSH1 0x0 CALLER PUSH20 0xFFFFFFFFFFFFFFFFFFFFFFFFFFFFFFFFFFFFFFFF AND PUSH20 0xFFFFFFFFFFFFFFFFFFFFFFFFFFFFFFFFFFFFFFFF AND DUP2 MSTORE PUSH1 0x20 ADD SWAP1 DUP2 MSTORE PUSH1 0x20 ADD PUSH1 0x0 KECCAK256 PUSH1 0x0 SWAP1 SLOAD SWAP1 PUSH2 0x100 EXP SWAP1 DIV PUSH1 0xFF AND ISZERO PUSH2 0x7C7 JUMPI PUSH1 0x0 DUP1 REVERT JUMPDEST PUSH1 0x1 DUP2 PUSH1 0x4 ADD PUSH1 0x0 CALLER PUSH20 0xFFFFFFFFFFFFFFFFFFFFFFFFFFFFFFFFFFFFFFFF AND PUSH20 0xFFFFFFFFFFFFFFFFFFFFFFFFFFFFFFFFFFFFFFFF AND DUP2 MSTORE PUSH1 0x20 ADD SWAP1 DUP2 MSTORE PUSH1 0x20 ADD PUSH1 0x0 KECCAK256 PUSH1 0x0 PUSH2 0x100 EXP DUP2 SLOAD DUP2 PUSH1 0xFF MUL NOT AND SWAP1 DUP4 ISZERO ISZERO MUL OR SWAP1 SSTORE POP DUP1 PUSH1 0x3 ADD PUSH1 0x0 DUP2 SLOAD DUP1 SWAP3 SWAP2 SWAP1 PUSH2 0x836 SWAP1 PUSH2 0xEC3 JUMP JUMPDEST SWAP2 SWAP1 POP SSTORE POP POP POP JUMP JUMPDEST DUP3 DUP1 SLOAD PUSH2 0x84B SWAP1 PUSH2 0xE92 JUMP JUMPDEST SWAP1 PUSH1 0x0 MSTORE PUSH1 0x20 PUSH1 0x0 KECCAK256 SWAP1 PUSH1 0x1F ADD PUSH1 0x20 SWAP1 DIV DUP2 ADD SWAP3 DUP3 PUSH2 0x86D JUMPI PUSH1 0x0 DUP6 SSTORE PUSH2 0x8B4 JUMP JUMPDEST DUP3 PUSH1 0x1F LT PUSH2 0x886 JUMPI DUP1 MLOAD PUSH1 0xFF NOT AND DUP4 DUP1 ADD OR DUP6 SSTORE PUSH2 0x8B4 JUMP JUMPDEST DUP3 DUP1 ADD PUSH1 0x1 ADD DUP6 SSTORE DUP3 ISZERO PUSH2 0x8B4 JUMPI SWAP2 DUP3 ADD JUMPDEST DUP3 DUP2 GT ISZERO PUSH2 0x8B3 JUMPI DUP3 MLOAD DUP3 SSTORE SWAP2 PUSH1 0x20 ADD SWAP2 SWAP1 PUSH1 0x1 ADD SWAP1 PUSH2 0x898 JUMP JUMPDEST JUMPDEST POP SWAP1 POP PUSH2 0x8C1 SWAP2 SWAP1 PUSH2 0x8C5 JUMP JUMPDEST POP SWAP1 JUMP JUMPDEST JUMPDEST DUP1 DUP3 GT ISZERO PUSH2 0x8DE JUMPI PUSH1 0x0 DUP2 PUSH1 0x0 SWAP1 SSTORE POP PUSH1 0x1 ADD PUSH2 0x8C6 JUMP JUMPDEST POP SWAP1 JUMP JUMPDEST PUSH1 0x0 PUSH1 0x40 MLOAD SWAP1 POP SWAP1 JUMP JUMPDEST PUSH1 0x0 DUP1 REVERT JUMPDEST PUSH1 0x0 DUP1 REVERT JUMPDEST PUSH1 0x0 DUP2 SWAP1 POP SWAP2 SWAP1 POP JUMP JUMPDEST PUSH2 0x909 DUP2 PUSH2 0x8F6 JUMP JUMPDEST DUP2 EQ PUSH2 0x914 JUMPI PUSH1 0x0 DUP1 REVERT JUMPDEST POP JUMP JUMPDEST PUSH1 0x0 DUP2 CALLDATALOAD SWAP1 POP PUSH2 0x926 DUP2 PUSH2 0x900 JUMP JUMPDEST SWAP3 SWAP2 POP POP JUMP JUMPDEST PUSH1 0x0 PUSH1 0x20 DUP3 DUP5 SUB SLT ISZERO PUSH2 0x942 JUMPI PUSH2 0x941 PUSH2 0x8EC JUMP JUMPDEST JUMPDEST PUSH1 0x0 PUSH2 0x950 DUP5 DUP3 DUP6 ADD PUSH2 0x917 JUMP JUMPDEST SWAP2 POP POP SWAP3 SWAP2 POP POP JUMP JUMPDEST PUSH1 0x0 PUSH20 0xFFFFFFFFFFFFFFFFFFFFFFFFFFFFFFFFFFFFFFFF DUP3 AND SWAP1 POP SWAP2 SWAP1 POP JUMP JUMPDEST PUSH1 0x0 PUSH2 0x984 DUP3 PUSH2 0x959 JUMP JUMPDEST SWAP1 POP SWAP2 SWAP1 POP JUMP JUMPDEST PUSH2 0x994 DUP2 PUSH2 0x979 JUMP JUMPDEST DUP2 EQ PUSH2 0x99F JUMPI PUSH1 0x0 DUP1 REVERT JUMPDEST POP JUMP JUMPDEST PUSH1 0x0 DUP2 CALLDATALOAD SWAP1 POP PUSH2 0x9B1 DUP2 PUSH2 0x98B JUMP JUMPDEST SWAP3 SWAP2 POP POP JUMP JUMPDEST PUSH1 0x0 PUSH1 0x20 DUP3 DUP5 SUB SLT ISZERO PUSH2 0x9CD JUMPI PUSH2 0x9CC PUSH2 0x8EC JUMP JUMPDEST JUMPDEST PUSH1 0x0 PUSH2 0x9DB DUP5 DUP3 DUP6 ADD PUSH2 0x9A2 JUMP JUMPDEST SWAP2 POP POP SWAP3 SWAP2 POP POP JUMP JUMPDEST PUSH1 0x0 DUP2 ISZERO ISZERO SWAP1 POP SWAP2 SWAP1 POP JUMP JUMPDEST PUSH2 0x9F9 DUP2 PUSH2 0x9E4 JUMP JUMPDEST DUP3 MSTORE POP POP JUMP JUMPDEST PUSH1 0x0 PUSH1 0x20 DUP3 ADD SWAP1 POP PUSH2 0xA14 PUSH1 0x0 DUP4 ADD DUP5 PUSH2 0x9F0 JUMP JUMPDEST SWAP3 SWAP2 POP POP JUMP JUMPDEST PUSH2 0xA23 DUP2 PUSH2 0x8F6 JUMP JUMPDEST DUP3 MSTORE POP POP JUMP JUMPDEST PUSH1 0x0 PUSH1 0x20 DUP3 ADD SWAP1 POP PUSH2 0xA3E PUSH1 0x0 DUP4 ADD DUP5 PUSH2 0xA1A JUMP JUMPDEST SWAP3 SWAP2 POP POP JUMP JUMPDEST PUSH2 0xA4D DUP2 PUSH2 0x979 JUMP JUMPDEST DUP3 MSTORE POP POP JUMP JUMPDEST PUSH1 0x0 PUSH1 0xA0 DUP3 ADD SWAP1 POP PUSH2 0xA68 PUSH1 0x0 DUP4 ADD DUP9 PUSH2 0xA1A JUMP JUMPDEST PUSH2 0xA75 PUSH1 0x20 DUP4 ADD DUP8 PUSH2 0xA1A JUMP JUMPDEST PUSH2 0xA82 PUSH1 0x40 DUP4 ADD DUP7 PUSH2 0xA1A JUMP JUMPDEST PUSH2 0xA8F PUSH1 0x60 DUP4 ADD DUP6 PUSH2 0xA1A JUMP JUMPDEST PUSH2 0xA9C PUSH1 0x80 DUP4 ADD DUP5 PUSH2 0xA44 JUMP JUMPDEST SWAP7 SWAP6 POP POP POP POP POP POP JUMP JUMPDEST PUSH1 0x0 PUSH2 0xAB1 DUP3 PUSH2 0x959 JUMP JUMPDEST SWAP1 POP SWAP2 SWAP1 POP JUMP JUMPDEST PUSH2 0xAC1 DUP2 PUSH2 0xAA6 JUMP JUMPDEST DUP3 MSTORE POP POP JUMP JUMPDEST PUSH1 0x0 PUSH1 0x20 DUP3 ADD SWAP1 POP PUSH2 0xADC PUSH1 0x0 DUP4 ADD DUP5 PUSH2 0xAB8 JUMP JUMPDEST SWAP3 SWAP2 POP POP JUMP JUMPDEST PUSH1 0x0 DUP2 MLOAD SWAP1 POP SWAP2 SWAP1 POP JUMP JUMPDEST PUSH1 0x0 DUP3 DUP3 MSTORE PUSH1 0x20 DUP3 ADD SWAP1 POP SWAP3 SWAP2 POP POP JUMP JUMPDEST PUSH1 0x0 JUMPDEST DUP4 DUP2 LT ISZERO PUSH2 0xB1C JUMPI DUP1 DUP3 ADD MLOAD DUP2 DUP5 ADD MSTORE PUSH1 0x20 DUP2 ADD SWAP1 POP PUSH2 0xB01 JUMP JUMPDEST DUP4 DUP2 GT ISZERO PUSH2 0xB2B JUMPI PUSH1 0x0 DUP5 DUP5 ADD MSTORE JUMPDEST POP POP POP POP JUMP JUMPDEST PUSH1 0x0 PUSH1 0x1F NOT PUSH1 0x1F DUP4 ADD AND SWAP1 POP SWAP2 SWAP1 POP JUMP JUMPDEST PUSH1 0x0 PUSH2 0xB4D DUP3 PUSH2 0xAE2 JUMP JUMPDEST PUSH2 0xB57 DUP2 DUP6 PUSH2 0xAED JUMP JUMPDEST SWAP4 POP PUSH2 0xB67 DUP2 DUP6 PUSH1 0x20 DUP7 ADD PUSH2 0xAFE JUMP JUMPDEST PUSH2 0xB70 DUP2 PUSH2 0xB31 JUMP JUMPDEST DUP5 ADD SWAP2 POP POP SWAP3 SWAP2 POP POP JUMP JUMPDEST PUSH1 0x0 PUSH1 0xA0 DUP3 ADD SWAP1 POP DUP2 DUP2 SUB PUSH1 0x0 DUP4 ADD MSTORE PUSH2 0xB95 DUP2 DUP9 PUSH2 0xB42 JUMP JUMPDEST SWAP1 POP PUSH2 0xBA4 PUSH1 0x20 DUP4 ADD DUP8 PUSH2 0xA1A JUMP JUMPDEST PUSH2 0xBB1 PUSH1 0x40 DUP4 ADD DUP7 PUSH2 0xAB8 JUMP JUMPDEST PUSH2 0xBBE PUSH1 0x60 DUP4 ADD DUP6 PUSH2 0x9F0 JUMP JUMPDEST PUSH2 0xBCB PUSH1 0x80 DUP4 ADD DUP5 PUSH2 0xA1A JUMP JUMPDEST SWAP7 SWAP6 POP POP POP POP POP POP JUMP JUMPDEST PUSH1 0x0 DUP1 REVERT JUMPDEST PUSH1 0x0 DUP1 REVERT JUMPDEST PUSH32 0x4E487B7100000000000000000000000000000000000000000000000000000000 PUSH1 0x0 MSTORE PUSH1 0x41 PUSH1 0x4 MSTORE PUSH1 0x24 PUSH1 0x0 REVERT JUMPDEST PUSH2 0xC17 DUP3 PUSH2 0xB31 JUMP JUMPDEST DUP2 ADD DUP2 DUP2 LT PUSH8 0xFFFFFFFFFFFFFFFF DUP3 GT OR ISZERO PUSH2 0xC36 JUMPI PUSH2 0xC35 PUSH2 0xBDF JUMP JUMPDEST JUMPDEST DUP1 PUSH1 0x40 MSTORE POP POP POP JUMP JUMPDEST PUSH1 0x0 PUSH2 0xC49 PUSH2 0x8E2 JUMP JUMPDEST SWAP1 POP PUSH2 0xC55 DUP3 DUP3 PUSH2 0xC0E JUMP JUMPDEST SWAP2 SWAP1 POP JUMP JUMPDEST PUSH1 0x0 PUSH8 0xFFFFFFFFFFFFFFFF DUP3 GT ISZERO PUSH2 0xC75 JUMPI PUSH2 0xC74 PUSH2 0xBDF JUMP JUMPDEST JUMPDEST PUSH2 0xC7E DUP3 PUSH2 0xB31 JUMP JUMPDEST SWAP1 POP PUSH1 0x20 DUP2 ADD SWAP1 POP SWAP2 SWAP1 POP JUMP JUMPDEST DUP3 DUP2 DUP4 CALLDATACOPY PUSH1 0x0 DUP4 DUP4 ADD MSTORE POP POP POP JUMP JUMPDEST PUSH1 0x0 PUSH2 0xCAD PUSH2 0xCA8 DUP5 PUSH2 0xC5A JUMP JUMPDEST PUSH2 0xC3F JUMP JUMPDEST SWAP1 POP DUP3 DUP2 MSTORE PUSH1 0x20 DUP2 ADD DUP5 DUP5 DUP5 ADD GT ISZERO PUSH2 0xCC9 JUMPI PUSH2 0xCC8 PUSH2 0xBDA JUMP JUMPDEST JUMPDEST PUSH2 0xCD4 DUP5 DUP3 DUP6 PUSH2 0xC8B JUMP JUMPDEST POP SWAP4 SWAP3 POP POP POP JUMP JUMPDEST PUSH1 0x0 DUP3 PUSH1 0x1F DUP4 ADD SLT PUSH2 0xCF1 JUMPI PUSH2 0xCF0 PUSH2 0xBD5 JUMP JUMPDEST JUMPDEST DUP2 CALLDATALOAD PUSH2 0xD01 DUP5 DUP3 PUSH1 0x20 DUP7 ADD PUSH2 0xC9A JUMP JUMPDEST SWAP2 POP POP SWAP3 SWAP2 POP POP JUMP JUMPDEST PUSH2 0xD13 DUP2 PUSH2 0xAA6 JUMP JUMPDEST DUP2 EQ PUSH2 0xD1E JUMPI PUSH1 0x0 DUP1 REVERT JUMPDEST POP JUMP JUMPDEST PUSH1 0x0 DUP2 CALLDATALOAD SWAP1 POP PUSH2 0xD30 DUP2 PUSH2 0xD0A JUMP JUMPDEST SWAP3 SWAP2 POP POP JUMP JUMPDEST PUSH1 0x0 DUP1 PUSH1 0x0 PUSH1 0x60 DUP5 DUP7 SUB SLT ISZERO PUSH2 0xD4F JUMPI PUSH2 0xD4E PUSH2 0x8EC JUMP JUMPDEST JUMPDEST PUSH1 0x0 DUP5 ADD CALLDATALOAD PUSH8 0xFFFFFFFFFFFFFFFF DUP2 GT ISZERO PUSH2 0xD6D JUMPI PUSH2 0xD6C PUSH2 0x8F1 JUMP JUMPDEST JUMPDEST PUSH2 0xD79 DUP7 DUP3 DUP8 ADD PUSH2 0xCDC JUMP JUMPDEST SWAP4 POP POP PUSH1 0x20 PUSH2 0xD8A DUP7 DUP3 DUP8 ADD PUSH2 0x917 JUMP JUMPDEST SWAP3 POP POP PUSH1 0x40 PUSH2 0xD9B DUP7 DUP3 DUP8 ADD PUSH2 0xD21 JUMP JUMPDEST SWAP2 POP POP SWAP3 POP SWAP3 POP SWAP3 JUMP JUMPDEST PUSH32 0x4E487B7100000000000000000000000000000000000000000000000000000000 PUSH1 0x0 MSTORE PUSH1 0x32 PUSH1 0x4 MSTORE PUSH1 0x24 PUSH1 0x0 REVERT JUMPDEST PUSH32 0x4E487B7100000000000000000000000000000000000000000000000000000000 PUSH1 0x0 MSTORE PUSH1 0x12 PUSH1 0x4 MSTORE PUSH1 0x24 PUSH1 0x0 REVERT JUMPDEST PUSH32 0x4E487B7100000000000000000000000000000000000000000000000000000000 PUSH1 0x0 MSTORE PUSH1 0x11 PUSH1 0x4 MSTORE PUSH1 0x24 PUSH1 0x0 REVERT JUMPDEST PUSH1 0x0 PUSH2 0xE3D DUP3 PUSH2 0x8F6 JUMP JUMPDEST SWAP2 POP PUSH2 0xE48 DUP4 PUSH2 0x8F6 JUMP JUMPDEST SWAP3 POP DUP3 PUSH2 0xE58 JUMPI PUSH2 0xE57 PUSH2 0xDD4 JUMP JUMPDEST JUMPDEST DUP3 DUP3 DIV SWAP1 POP SWAP3 SWAP2 POP POP JUMP JUMPDEST PUSH32 0x4E487B7100000000000000000000000000000000000000000000000000000000 PUSH1 0x0 MSTORE PUSH1 0x22 PUSH1 0x4 MSTORE PUSH1 0x24 PUSH1 0x0 REVERT JUMPDEST PUSH1 0x0 PUSH1 0x2 DUP3 DIV SWAP1 POP PUSH1 0x1 DUP3 AND DUP1 PUSH2 0xEAA JUMPI PUSH1 0x7F DUP3 AND SWAP2 POP JUMPDEST PUSH1 0x20 DUP3 LT DUP2 SUB PUSH2 0xEBD JUMPI PUSH2 0xEBC PUSH2 0xE63 JUMP JUMPDEST JUMPDEST POP SWAP2 SWAP1 POP JUMP JUMPDEST PUSH1 0x0 PUSH2 0xECE DUP3 PUSH2 0x8F6 JUMP JUMPDEST SWAP2 POP PUSH32 0xFFFFFFFFFFFFFFFFFFFFFFFFFFFFFFFFFFFFFFFFFFFFFFFFFFFFFFFFFFFFFFFF DUP3 SUB PUSH2 0xF00 JUMPI PUSH2 0xEFF PUSH2 0xE03 JUMP JUMPDEST JUMPDEST PUSH1 0x1 DUP3 ADD SWAP1 POP SWAP2 SWAP1 POP JUMP INVALID LOG2 PUSH5 0x6970667358 0x22 SLT KECCAK256 PUSH17 0xFB11719F0A71B75845FB82499972098C04 PUSH18 0xB766903D08EFF3D18167DDF7E464736F6C63 NUMBER STOP ADDMOD 0xD STOP CALLER "},"gasEstimates":{"creation":{"codeDepositCost":"781000","executionCost":"infinite","totalCost":"infinite"},"external":{"approveRequest(uint256)":"infinite","approvers(address)":"2868","approversCount()":"2451","contribute()":"51043","createRequest(string,uint256,address)":"infinite","finalizeRequest(uint256)":"infinite","getRequestCount()":"2490","getSummary()":"infinite","manager()":"2600","minimumContribution()":"2495","requests(uint256)":"infinite"}},"methodIdentifiers":{"approveRequest(uint256)":"d7d1bbdb","approvers(address)":"0a144391","approversCount()":"82fde093","contribute()":"d7bb99ba","createRequest(string,uint256,address)":"8a9cfd55","finalizeRequest(uint256)":"03441006","getRequestCount()":"3fad1834","getSummary()":"4051ddac","manager()":"481c6a75","minimumContribution()":"937e09b1","requests(uint256)":"81d12c58"}},"storageLayout":{"storage":[{"astId":18,"contract":"Campaign.sol:Campaighn","label":"manager","offset":0,"slot":"0","type":"t_address_payable"},{"astId":20,"contract":"Campaign.sol:Campaighn","label":"minimumContribution","offset":0,"slot":"1","type":"t_uint256"},{"astId":24,"contract":"Campaign.sol:Campaighn","label":"approvers","offset":0,"slot":"2","type":"t_mapping(t_address,t_bool)"},{"astId":28,"contract":"Campaign.sol:Campaighn","label":"requests","offset":0,"slot":"3","type":"t_array(t_struct(Request)16_storage)dyn_storage"},{"astId":31,"contract":"Campaign.sol:Campaighn","label":"currentIndex","offset":0,"slot":"4","type":"t_uint256"},{"astId":33,"contract":"Campaign.sol:Campaighn","label":"approversCount","offset":0,"slot":"5","type":"t_uint256"}],"types":{"t_address":{"encoding":"inplace","label":"address","numberOfBytes":"20"},"t_address_payable":{"encoding":"inplace","label":"address payable","numberOfBytes":"20"},"t_array(t_struct(Request)16_storage)dyn_storage":{"base":"t_struct(Request)16_storage","encoding":"dynamic_array","label":"struct Campaighn.Request[]","numberOfBytes":"32"},"t_bool":{"encoding":"inplace","label":"bool","numberOfBytes":"1"},"t_mapping(t_address,t_bool)":{"encoding":"mapping","key":"t_address","label":"mapping(address => bool)","numberOfBytes":"32","value":"t_bool"},"t_string_storage":{"encoding":"bytes","label":"string","numberOfBytes":"32"},"t_struct(Request)16_storage":{"encoding":"inplace","label":"struct Campaighn.Request","members":[{"astId":3,"contract":"Campaign.sol:Campaighn","label":"description","offset":0,"slot":"0","type":"t_string_storage"},{"astId":5,"contract":"Campaign.sol:Campaighn","label":"value","offset":0,"slot":"1","type":"t_uint256"},{"astId":7,"contract":"Campaign.sol:Campaighn","label":"recipient","offset":0,"slot":"2","type":"t_address_payable"},{"astId":9,"contract":"Campaign.sol:Campaighn","label":"complete","offset":20,"slot":"2","type":"t_bool"},{"astId":11,"contract":"Campaign.sol:Campaighn","label":"approvalCount","offset":0,"slot":"3","type":"t_uint256"},{"astId":15,"contract":"Campaign.sol:Campaighn","label":"approvals","offset":0,"slot":"4","type":"t_mapping(t_address,t_bool)"}],"numberOfBytes":"160"},"t_uint256":{"encoding":"inplace","label":"uint256","numberOfBytes":"32"}}},"userdoc":{"kind":"user","methods":{},"version":1}}